:020000040800F2
:1000000048080020410200084F0200085102000881
:1000100053020008550200085702000800000000C3
:10002000000000000000000000000000590200086D
:100030005B020008000000005D0200085F0200088B
:100040006102000861020008610200086102000804
:1000500061020008610200086102000861020008F4
:1000600061020008610200086102000861020008E4
:1000700061020008610200086102000861020008D4
:1000800061020008610200086102000861020008C4
:1000900061020008610200086102000861020008B4
:1000A00061020008251B00086102000861020008C7
:1000B00061020008411B000861020008610200089B
:1000C0006102000861020008610200086102000884
:1000D00061020008011C00086102000861020008BA
:1000E0006102000861020008610200086102000864
:1000F000751B000861020008610200086102000827
:100100006102000861020008610200086102000843
:100110006102000861020008610200086102000833
:100120006102000861020008610200086102000823
:100130002D12000861020008610200086102000837
:100140006102000861020008610200086102000803
:1001500061020008610200086102000861020008F3
:1001600061020008610200086102000861020008E3
:10017000610200086102000861020008000000003E
:10018000610200086102000800F002F800F049F87E
:100190000AA090E8000C82448344AAF10107DA45E2
:1001A00001D100F03EF8AFF2090EBAE80F0013F0EB
:1001B000010F18BFFB1A43F001031847E84900007C
:1001C000084A0000103A24BF78C878C1FAD852070C
:1001D00024BF30C830C144BF04680C6070470000C1
:1001E0000023002400250026103A28BF78C1FBD840
:1001F000520728BF30C148BF0B607047662904F022
:10020000F483002070471FB504F0E5FB00F0ACFA62
:1002100004000020002103F0D9FCE0601FBD10B5F0
:1002200010BD00F0C1FB1146FFF7EDFF02F074FFB7
:1002300000F0DFFB03B4FFF7F2FF03BC02F022FB88
:100240000B48016841F4700101600A480047FEE76D
:10025000FEE7FEE7FEE7FEE7FEE7FEE7FEE7FEE776
:10026000FEE7000004480549034A054B70470000BB
:1002700088ED00E0890100084804002048080020BB
:1002800048040020704700000FB4044910B503AAC9
:10029000029800F057FA10BC5DF814FB040000202F
:1002A0002DE9F0410E460446002020622046E16818
:1002B000884730B3252805D0D4E901219047206A2A
:1002C000401CF2E7E168204600278847050018D067
:1002D000A5F14100192802D820354FF400673246B5
:1002E000294620462760FFF789FF40B1012804D046
:1002F000F61D26F007060836D8E7361DD6E728464D
:10030000DAE7206ABDE8F0817047704770477047B0
:1003100010B500F02DFA006810BD10B5044600F0CD
:1003200027FA046010BD70472DE9FF4F0C461E46AA
:100330004FF0FF378BB0D2E90001DDF860800A9002
:100340008A46C1F30A5505B93D46002108464FF0DB
:100350000000BAF1000F00F4400005DA00EB800065
:100360004FF4400101EA50004FEA9059B9F1010FF2
:1003700000DDB9460A9850EA4A000ED044F6105003
:10038000A5F2FF3545432F14B8F1000F1ED075427A
:10039000291E1EDDC9F100021CE0B8F1010F4FF06B
:1003A000000001D0302103E0F24305E02154401C5D
:1003B000B042FBDB30460022002121540B99C1F8EA
:1003C0000880C1E900200FB0BDE8F08FBD1B6D1C97
:1003D000DEE74A4600DA694206A800F06BFA06AB8F
:1003E00093E8070003AB83E8070050460A9900F042
:1003F00049FB8DE80700A0F500501F3800900398D6
:10040000002D0ADD42F21F014A460844002303A9D9
:100410000390684600F0B2FD09E0A0F500504A469E
:100420001F38002303A90390684600F0BCFD8DE847
:1004300007000004000C03D04FF0FF30410800E03B
:100440001046B8F1000F03D00022009215461EE0BE
:10045000751E05D400F090F9303262556D1EF9D545
:10046000B3460122084302D000227F1C04E020781A
:10047000302801D100227F1E002A099784D01DE078
:10048000112D07DA00F078F9303262556D1C50EA10
:100490000102F5D1084302D00098C8B10EE0002156
:1004A000681E05E0235C625C63542254401E491CB4
:1004B0008142F7DBAB46A81B401E0990002004F8E0
:1004C0000B000B98099AC0F80880C0E9002B7AE766
:1004D00011264FF0000857E72DE9F04F88460446F3
:1004E000D21D22F0070191B0D1E90001CDE90A0146
:1004F00001F0C6FB02460B98C00F01D02D2007E08B
:100500002068810701D52B2002E0202101EAC000EC
:10051000032A099001D0072A05DB034641462046FD
:1005200000F088F90BE12078800601D5E06900E051
:100530000620B8F1650F814606D0B8F1660F18D0D5
:10054000B8F1670F70D131E00020B9F1110F0090C0
:1005500001DB112301E009F101030AAA01A90CA89A
:10056000FFF7E2FEDDE90C70002609F10105834684
:1005700047E001204B4600904FF000470AAA01A92E
:100580000CA8FFF7D1FEDDE90DB00C995D46002601
:1005900010B909F101000D18B9EB050003D4C0F141
:1005A000FF3609F10105A5EB09002BE0B9F1010FB8
:1005B00001DA4FF001090020B9F1110F009048460F
:1005C00001DD112300E003460AAA01A90CA8FFF7E8
:1005D000ABFEDDE90C704D4600268346207800070F
:1005E0000AD4AB4500DA5D4601A8012D04DD4119AE
:1005F00011F8011C302907D04F4502DA17F1040F1A
:1006000004DA012082460FE06D1EEEE7002F02DCC7
:10061000ED1B3E4403E0781CA84200DD7D1CB81BA6
:1006200000F1010A4FF000472078000703D4AA45E3
:1006300001DB4FF0FF3A0021B7F1004F0DF1430805
:100640008DF8431024D002202B23002F01DA7F42A3
:100650002D230A21021EA0F1010000DC5FB197FBEF
:10066000F1FC97FBF1F201FB1C7C17460CF1300CFE
:1006700008F801CDEEE7A8F1010003702188090513
:1006800001D5452100E06521A0F1010800F8011C19
:1006900009980FA9A1EB0807FF1D00B1012041191E
:1006A00001EBEA70A1693844081A401EA061207865
:1006B000C00602D42046AFF30080099828B1D4E9DF
:1006C00001219047206A401C20622078C00622D574
:1006D0002046AFF300801EE0002E04DBB34502DDB0
:1006E00001A8805D00E03020D4E901219047206A14
:1006F000401C2062761CAAF101005FEA000A0AD1C0
:1007000000F032F8C0680168405CD4E901219047EC
:10071000206A401C2062281EA5F10105DCDC07E0F0
:10072000D4E9012118F8010B9047206A401C20628F
:10073000381EA7F10107F3DC2046AFF30080032049
:1007400011B041E6074B70B50D467B4400F05FF8F1
:100750000446284600F020F910B14FF0FF3070BD7C
:10076000204670BD93280000004870470804002010
:1007700000487047E803002030B5B0F10A024FEAA4
:10078000900E71F100034EEA817EB0EB0E0061EB3A
:1007900091014FEA101E4EEA017E10EB0E0041EB74
:1007A00011114FEA102E4EEA016E10EB0E0041EBD4
:1007B00011214FEA104E4EEA014E10EB0E0041EBB4
:1007C0001141401841F100014FEAD00040EA417068
:1007D0004FEAD10110EB80054FEA810444EA90749E
:1007E00044EB01046D1944EB0404521BA3414FF088
:1007F000000348BF0A3200D530BD401C41F1000162
:1008000030BD000001694A1C02610878704700B5DC
:100810008FB0CDE901310021059105497944CDE939
:10082000031011466846FFF73BFD0FB000BD000006
:10083000E5FFFFFF2DE9F0411F460446032601684E
:10084000072A01F4006004DB08B116A505E016A52F
:1008500003E008B115A500E015A521F01000206007
:10086000A069C01EA0610FB1401EA0612046AFF379
:1008700000804FB1D4E9012138469047206A401CDE
:100880002062C01C206206E0206AFAE7D4E9012158
:1008900015F8010B9047761EF8D22046AFF3008082
:1008A000BDE8F0814E414E006E616E00494E46003B
:1008B000696E66002DE9F047814616468AB03548D4
:1008C00078440DC88DE80D0032487844801C03AC94
:1008D0000DC884E80D0041F69B300844372190FB99
:1008E000F1F290FBF1F5A5F1800501FB12041B3C30
:1008F00002D56442012000E00020DFF898A0804685
:100900000027FA44AAF1BE0A0EE0E0070AD03246F8
:10091000684607EB470101230AEB810100F043FB26
:100920008DE8070064107F1C002CEED1194F7F4426
:10093000AE3F19E0E80715D007EB04100DF1180AD7
:1009400090E80E008AE80E00C068F04201D19819C4
:1009500008903246012306A903A800F024FB03AB4C
:1009600083E807006D10641C002DE3D14FF00103F4
:1009700032466946B8F1000F03A802D000F0FEFA33
:1009800001E000F010FBC9E90001C9F808200AB035
:10099000BDE8F087C8420000007B00F0800070478F
:1009A00000487047E80300207546FFF7F9FFAE46A0
:1009B00005006946534620F00700854618B020B56B
:1009C000FFF750FCBDE820404FF000064FF0000755
:1009D0004FF000084FF0000B21F00701AC46ACE8E7
:1009E000C009ACE8C009ACE8C009ACE8C0098D4654
:1009F000704710B50446AFF300802046BDE81040B4
:100A0000FFF718BC4FF0013C50F8042B51F8043BA1
:100A10009A4221D1A2EB0C03934313EACC1317D1D2
:100A200050F8042B51F8043B9A4215D1A2EB0C0369
:100A3000934313EACC130BD150F8042B51F8043B29
:100A40009A4209D1A2EB0C03934313EACC13DBD0F7
:100A50004FF00000704700BFD01A01BAB1FA81F11F
:100A600001F0180122FA01F0CB40C1F12001DBB204
:100A7000C0B2C01A2CFA01F3D11A914311EAC31182
:100A8000E6D170475FEA400C08BF91F0000F4FEAD3
:100A90008C234FEAC12243EA51514FEA1C5018BF40
:100AA00000F5F0404FEA300018BF41F000415FEA26
:100AB0006C5C00F02980BCF1FF3F08BF40F0804033
:100AC0007047130C06BF12044FF0100C4FF0000CCF
:100AD000130E04BF12020CF1080C130F04BF120115
:100AE0000CF1040C930F04BF92000CF1020CD30F15
:100AF00004BF52000CF1010C11464FF00002A0F1AE
:100B00001F00A0EB0C00704711F0004F08BF7047AA
:100B100031F000413FF4D5AF0B0C06BF09044FF094
:100B2000100C4FF0000C0B0E04BF09020CF1080C66
:100B30000B0F04BF09010CF1040C8B0F04BF8900DB
:100B40000CF1020CCB0F04BF49000CF1010CCCF1ED
:100B50002003A0EB0C0022FA03F302FA0CF241EAA4
:100B6000030100F10100704720F07F4C80EA030090
:100B700023F07F47ACEB070303F57C5300F0004004
:100B800003F1FF032DE980494FEA154B09B44FEA01
:100B9000144325EA0B4E24EA03480FF2042606EB21
:100BA000132749083E785FEA320203FB0667C7F560
:100BB000000707FB06F64FEA54374FEAD64606F120
:100BC000020607FB066CCCF1005C4FEA1C472CEADE
:100BD000074C07FB06F40CFB06F504EB15464FEA41
:100BE000961634BF00204FF000404FEAD13706FB85
:100BF00007FC4FEA1C4C0CFB0BF7D21B03FB0CF75A
:100C000061EB07010CFB0EF7B0EB074072EB1742EC
:100C10000CFB08F734BFA2EB0742B2EB074261EBD3
:100C200017414FEA0C444FEA910706FB07FC4FEAD5
:100C30001C4C0CFB0BF7B0EBC74072EB573203FBBD
:100C40000CF734BFA2EBC742B2EBC74261EB57319E
:100C50000CFB0EF7B0EBC70072EB57720CFB08F7FA
:100C600034BFA2EBC702B2EBC70261EB5771039F1F
:100C70004FEA816141EA921104EBCC044FEAD1378B
:100C80004FEA826206FB07FC42EA90124FEA80605C
:100C90004FEA1C4C0CFB0BF7D21B03FB0CF761EB70
:100CA00007010CFB0EF7B0EB074072EB17420CFB91
:100CB00008F734BFA2EB0742B2EB074261EB1741E2
:100CC0004FEA8C554FEA910704EB9C2406FB07FC86
:100CD0004FEA1C4C0CFB0BF7B0EBC74072EB5732E2
:100CE00003FB0CF734BFA2EBC742B2EBC74261EB88
:100CF00057310CFB0EF7B0EBC70072EB57720CFBD1
:100D000008F734BFA2EBC702B2EBC70261EB577121
:100D100015EB4C254FEA816141EA92114FEA82625C
:100D20004FEAD13742EA901206FB07FC44F1000477
:100D30004FEA80604FEA1C4C0CFB0BF7D21B03FB05
:100D40000CF761EB07010CFB0EF7B0EB074072EB01
:100D500017420CFB08F734BFA2EB0742B2EB074285
:100D600061EB174115EB1C154FEA813141EA9241C5
:100D70004FEA823242EA90424FEA80304FEA0C76E4
:100D800044F1000448EA03434EEA0B484FF0000EDA
:100D9000B2EB080C71EB030724BF624639464EEBF9
:100DA0000E0E4FF0000B0018524149414BEB0B0B5C
:100DB000B2EB080C71EB03077BF1000B24BF62461A
:100DC00039464EEB0E0E4FF0000B001852414941D0
:100DD0004BEB0B0BB2EB080C71EB03077BF1000B39
:100DE00024BF624639464EEB0E0E51EA020718BF89
:100DF00046F0010616EB0E7655F1000254F10001A3
:100E000003D5BDE88901BDE80088BDE88901BDE8DA
:100E10000048B619524141EB0101A3F101037047AB
:100E200080807F7E7D7C7B7A797877767675747327
:100E3000727171706F6E6E6D6C6C6B6A6A696868E6
:100E4000676666656464636362616160605F5F5E7C
:100E50005E5D5D5C5C5B5B5A5A59595858575756F2
:100E60005655555554545353525252515150505057
:100E70004F4F4F4E4E4D4D4D4C4C4C4B4B4B4A4AA9
:100E80004A494949484848474747474646464545ED
:100E90004544444444434343434242424241414126
:100EA000002B9C4630D477002BD01CB54FEA370777
:100EB00003B44FF010004FF01001BAF1000F06D04C
:100EC000BCF1000FDCBF40F0080040F008014FF01B
:100ED00000000FBCBDE810400BF1010BBBF1010F8E
:100EE00008BF5FEA170722BF12F1010211F10101E9
:100EF0004FF0004143F1000300F0004043EA0000DE
:100F00007047F9D35708D0E746EA064613F1400F79
:100F10004FEA16461FDD13F1200FDFBF16430A46C6
:100F2000002120335B42BED0C3F1200746EA0646CB
:100F300002FA07F74FEA164646EA0706C3F120070A
:100F400022FA03F201FA07F721FA03F14FF0000346
:100F500042EA0702A7E746EA020646EA06464FEAE1
:100F6000164646EA0106BCBF46EA0646360C4FF076
:100F700000034FF000024FF0000194E72DE9804C90
:100F80009A46934670B491E8380007C831EA400C9D
:100F900048BF34EA430C03D5FFF7E6FDFFF780FFB7
:100FA000F0BCBDE8008C2DE9804C9A46934670B4A5
:100FB00091E8380007C810F0804F08BF13F0804F49
:100FC00003D100F005F8FFF76BFFF0BCBDE8008C23
:100FD00020F07F4780EA030023F07F4C07EB0C03EF
:100FE000A3F57C5300F00040A3F1FE0392F0000F44
:100FF00000F0B38095F0000F00F077802DE90149F3
:101000004FEA11404FEA144621EA004800FB06FC73
:1010100024EA064708FB06F607FB08F800FB07F77B
:1010200018EB06484CEB164C4FEA124B18EB0748EE
:101030004FEA15464CEB174022EA0B4E0BFB06FC21
:1010400025EA06470EFB06F607FB0EFE0BFB07F72D
:101050001EEB064E4CEB164C4FF000061EEB074EF7
:101060004CEB174B18EB0B0840F1000018EB0E0B84
:1010700058EB000840F100008F1A4FF000013CBF10
:10108000C943661B14BFB5EB040C00213CBFC94328
:10109000F61B4FEA17444EEA8E0E27EA04454FEA44
:1010A0001C4704FB07622CEA074C05FB07F70CFB07
:1010B00005F604FB0CFC16EB074642EB174216EB59
:1010C0000C4642EB1C421BEB060658EB0202414168
:1010D00046EA9E0601D5BDE80189B619524141EBA9
:1010E0000101A3F10103BDE801894FEA14454FEA6C
:1010F000114724EA054621EA074C05FB07F406FBE5
:1011000007F70CFB06F105FB0CFC11EB074144EB68
:1011100017444FEA124711EB0C4144EB1C4422EAFE
:10112000074C05FB07F206FB07F70CFB06F605FB71
:101130000CFC16EB074642EB174216EB0C4642EB53
:101140001C456A1854F1000148BF7047B619524156
:1011500041EB0101A3F10103704795F0000F37D077
:101160004FEA11424FEA144721EA024624EA074CAB
:1011700002FB07F106FB07F70CFB06F402FB0CFC75
:1011800014EB074441EB17414FEA154714EB0C44AD
:1011900041EB1C4125EA074C02FB07F506FB07F76C
:1011A0000CFB06F602FB0CFC16EB074645EB17455D
:1011B00016EB0C4645EB1C42121951F1000148BFD9
:1011C0007047B619524141EB0101A3F10103704789
:1011D0004FEA14454FEA114724EA054621EA074C35
:1011E00005FB07F106FB07F70CFB06F24FF00006C4
:1011F00005FB0CFC12EB074241EB174112EB0C42D2
:1012000051EB1C4148BF7047921841EB0101A3F11B
:1012100001037047002004498870087188710872C2
:1012200088728873704700008001002009480068B8
:1012300000F0200060B101200749087000BF054898
:101240000830006840F0200002490831086000BF03
:101250007047000004640240240000201CB500BF59
:101260000848006840F008000649086000BF0120F7
:10127000022100230246CDE900103F21024802F07E
:101280004DFB1CBD30380240000C024010B5FFF78A
:10129000E5FF00F00DF9112000F036F9782001F09B
:1012A0002BFEB12000F030F9012000F015F92C20C0
:1012B00000F012F92D2000F00FF9B22000F024F90F
:1012C000012000F009F92C2000F006F92D2000F093
:1012D00003F9B32000F018F9012000F0FDF82C20EC
:1012E00000F0FAF82D2000F0F7F8012000F0F4F8F3
:1012F0002C2000F0F1F82D2000F0EEF8B42000F0E2
:1013000003F9072000F0E8F8C02000F0FDF8A22063
:1013100000F0E2F8022000F0DFF8842000F0DCF8B2
:10132000C12000F0F1F8C52000F0D6F8C22000F08E
:10133000EBF80A2000F0D0F8002000F0CDF8C32030
:1013400000F0E2F88A2000F0C7F82A2000F0C4F884
:10135000C42000F0D9F88A2000F0BEF8EE2000F09A
:10136000BBF8C52000F0D0F80E2000F0B5F836200C
:1013700000F0CAF8C02000F0AFF8E02000F0C4F898
:101380000F2000F0A9F81A2000F0A6F80F2000F0B6
:10139000A3F8182000F0A0F82F2000F09DF82820D6
:1013A00000F09AF8202000F097F8222000F094F83E
:1013B0001F2000F091F81B2000F08EF8232000F091
:1013C0008BF8372000F088F8002000F085F807201F
:1013D00000F082F8022000F07FF8102000F07CF886
:1013E000E12000F091F80F2000F076F81B2000F0CB
:1013F00073F80F2000F070F8172000F06DF833201C
:1014000000F06AF82C2000F067F8292000F064F85A
:101410002E2000F061F8302000F05EF8302000F05F
:101420005BF8392000F058F83F2000F055F8002014
:1014300000F052F8072000F04FF8032000F04CF8BD
:10144000102000F049F82A2000F05EF8002000F09B
:1014500043F8002000F040F8002000F03DF87F2025
:1014600000F03AF82B2000F04FF8002000F034F89C
:10147000002000F031F8002000F02EF89F2000F04E
:101480002BF8F02000F040F8012000F025F8F620BD
:1014900000F03AF8002000F01FF83A2000F034F88D
:1014A000052000F019F8292000F02EF810BD0000EA
:1014B00010B500220421074802F024FA642001F04C
:1014C0001BFD01220421034802F01CFA322001F026
:1014D00013FD10BD000C024010B50446002210217F
:1014E000084802F00FFA01220821064802F00AFA21
:1014F000204600F0DBF801221021024802F002FA37
:1015000010BD0000000C024010B50446002210215E
:10151000084802F0F7F900220821064802F0F2F923
:10152000204600F0C3F801221021024802F0EAF937
:1015300010BD0000000C0240FEB501271B480078DA
:10154000012831D1002415E00026002508E00620FE
:1015500000FB0540164931F810000644681C85B2AE
:10156000322DF4DB3220B6FBF0F080B22DF81400FF
:10157000601C84B2052CE7DB00200C4908704FF496
:10158000967001F0A7F9BDF800000A494862BDF85D
:1015900002000862BDF80400C861BDF80600886159
:1015A000BDF80800486300273846FEBD240000202F
:1015B000900100205800002010B501F01FFD0549E2
:1015C00008800846008800B201F062FC024880ED05
:1015D000000A10BD180000201C000020324840788E
:1015E00001280FD1002030494870012008710846B9
:1015F000C078401CC0B2C8700A2803DB0020C87045
:10160000012008712848007901280BD1264840792B
:10161000401CC0B2244948710A2803DB00204871ED
:10162000012088712048807901280BD11E48C0799B
:10163000401CC0B21C49C871052803DB0020C871DA
:10164000012008721848007A01280BD11648407A08
:10165000401CC0B214494872022803DB00204872C3
:10166000012088721048807A01280BD10E48C07A78
:10167000401CC0B20C49C8720A2803DB0020C872A3
:10168000012008730848007B01280BD10648407BE5
:10169000401CC0B204494873062803DB002048738D
:1016A00001208873704700008001002070B5044657
:1016B000002508251BE004F0800028B1012202214A
:1016C0000C4802F01FF904E000220221094802F050
:1016D00019F900220121074802F014F901221146EC
:1016E000044802F00FF96006040E681EC5B2002D12
:1016F000E1DC70BD000C024000BF411E081EFCD1A1
:101700007047000000B51A48006820F440101849DE
:1017100008600022002324E015481430006820F4FB
:1017200080701349143108604FF4C870FFF7E4FF6C
:101730000F481430006840F480700D49143108607F
:101740005006020E081F006800F40070091F0860B0
:1017500008B142F001024FF4C870FFF7CDFF581CEA
:10176000C3B2082BD8DB00F031F9104600BD0000F1
:101770000004024000B51A48006820F440101849DF
:1017800008600022002324E015481430006820F48B
:1017900080701349143108604FF4C870FFF7ACFF34
:1017A0000F481430006840F480700D49143108600F
:1017B0005006020E081F006800F40070091F086040
:1017C00008B142F001024FF4C870FFF795FF581CB2
:1017D000C3B2082BD8DB00F071F8104600BD000042
:1017E0000004024000B51B48006820F4401019496D
:1017F00008600846006840F48010086015481430FE
:10180000006840F40070134914310860084600680D
:1018100040F4807008604FF4C870FFF76DFF0D480A
:101820001430006820F400700A49143108604FF445
:10183000C870FFF761FF07481430006820F480701B
:101840000449143108604FF4C870FFF755FF0020B9
:1018500000BD00000004024000B51748006820F4F5
:101860004010154908600846006840F48010086080
:1018700011481430006820F480700F49143108605A
:101880000846006820F4007008604FF4C870FFF745
:1018900033FF09481430006840F480700649143161
:1018A00008600846006840F4007008604FF4C87093
:1018B000FFF722FF00BD00000004024000B51948F8
:1018C000006820F4807017490860164814380068D2
:1018D00020F440101349143908600846006840F4A9
:1018E000801008600F48006820F400700D490860FF
:1018F0004FF4C870FFF700FF0A48006840F480709A
:10190000084908604FF4C870FFF7F6FE0548006804
:1019100020F48070034908604FF4C870FFF7ECFEB4
:1019200000BD00001404024000B5024626480068CD
:1019300020F44010244908600846006840F48010F4
:10194000086021481430006820F480701E4914316A
:101950000860002333E002F0800040B11A481430E0
:10196000006840F4007018491431086007E0164818
:101970001430006820F400701349143108605006D8
:10198000020E4FF4C870FFF7B7FE0F48143000681E
:1019900040F480700C49143108604FF4C870FFF7B0
:1019A000ABFE09481430006820F4807006491431F9
:1019B00008604FF4C870FFF79FFE581CC3B2082B95
:1019C000C9DB002000BD00000004024000B519483A
:1019D000006820F4807017490860164814380068C1
:1019E00020F440101349143908600846006840F498
:1019F000801008600F48006840F400700D490860CE
:101A00004FF4C870FFF778FE0A48006840F4807011
:101A1000084908604FF4C870FFF76EFE054800687B
:101A200020F48070034908604FF4C870FFF764FE2B
:101A300000BD00001404024008B5002000901F48BB
:101A4000006820F440101D4908601C4814300068EC
:101A500040F400701949143108604FF4C870FFF762
:101A60004BFE16481430006840F48070134914315E
:101A700008604FF4C870FFF73FFE0CE09DF80000CF
:101A8000401CC0B200909DF80000FA2803DDFFF76B
:101A9000E3FE012008BD09481030006800F4007022
:101AA0000649103108600028E8D1081D006820F4BC
:101AB0008070091D08600020ECE70000000402406F
:101AC000F0B506460F4614461D46FFF78BFE002173
:101AD00041EA4601C8B2FFF727FFFFF7ADFF3846DE
:101AE000FFF722FFFFF7A8FFFFF77CFE012101EBC4
:101AF0004601C8B2FFF718FFFFF79EFF0BE0012C6D
:101B000003D1FFF7FFFD287002E0FFF733FE2870D6
:101B10006D1C601EC4B2002CF1D1FFF79DFE0020A9
:101B2000F0BD00000548006800F0010028B103483E
:101B3000006820F00100014908607047100401406E
:101B400010B50A48006800F0010068B10748006855
:101B500020F001000549086001200549487001F0A6
:101B60004DFB01200249887010BD000010040040A8
:101B70008001002000202049096801F0010151B3D3
:101B80001E490968B1F5807F08D91C490968A1F58B
:101B900080711A4A11604FF4807007E01749097884
:101BA00021B1164908780021144A1160A0B1411EE4
:101BB000114A203211601049091D096841F00101E4
:101BC0000D4A121D11600C491039096841F00101DC
:101BD000094A103A116007E007491039096821F0F5
:101BE0000101054A103A11600349096821F0010119
:101BF000014A1160704700001004014020000020DD
:101C00001C49096801F0200109B31A494968C8B2A2
:101C10001949098801F40041C9B91749098801F433
:101C2000804161B10A2803D00021134A118020E0CD
:101C30001149098841F400410F4A118019E00D282B
:101C400006D10D49098841F480410B4A118010E00A
:101C500009490988C1F30D01084A50540649098809
:101C6000491C054A118011460988C72901DD002158
:101C7000118070470010014008000020B8000020CB
:101C800003B401984100009850EAC12018BF042015
:101C90004A0D18BF40F0010040F2FF72B2EB515FF5
:101CA00008BF40F00200012808BF052002B07047BD
:101CB00010B52F499FED2C1B2DED020B84B005981C
:101CC00020F000408842D8BF9DED040B2DDD29494E
:101CD000884209D1049840B94FF00100FEF71DFB7E
:101CE00000F066FD06B010BD05DB9DED040B00F0B5
:101CF00053FD06B010BD68469DED040B00F064F97D
:101D000010F0030004BF9DED021B9DED000B0CD0F5
:101D100001280ED09DED021B9DED000B022817D06F
:101D2000012000F0A1FC06B010BD00F069FB06B078
:101D300010BD9DED021B9DED000B012000F094FCF9
:101D400051EC100B01F058FF06B041EC100B10BD28
:101D500000F056FB51EC100B01F04EFF06B041ECC9
:101D6000100B10BD0000000000000000000000008B
:101D7000FB21E93F0000F07F10B52DED040B86B08C
:101D80009DED060B10EE100A10EE901A8DED000B73
:101D9000002818BF0120084320F00040C0F17F60F8
:101DA00000F1E040C00F21D19DED080B10EE101A9C
:101DB00010EE900A8DED000B002918BF0121084399
:101DC00020F00040C0F17F6000F1E040C00F0DD175
:101DD00029490798B1EB400F04BF0698002842D06C
:101DE0000998400004BF089800283CD09DED080BDE
:101DF00053EC102B9DED060B51EC100B02F0D4FAB6
:101E0000CDE902019DED020B40F2FF7110EE900A48
:101E10008DED000B31EA105021D00798039900F0A6
:101E2000004001F00041884219D09DED080B8DED76
:101E3000040B9DED020B8DED000B10EE900A059941
:101E400061F31E0005909DED041B9DED020B51EC0E
:101E5000110B53EC102B02F08BFBCDE902019DED31
:101E6000020B0AB010BD0120FEF757FA0AB0BDE818
:101E7000104000F09DBC00000000E0FF00000000EA
:101E800010B52F499FED2C1B2DED020B84B005984A
:101E900020F000408842DCBF00209DED040B32DDC5
:101EA0002849884209D1049840B94FF00100FEF753
:101EB00034FA00F07DFC06B010BD05DB9DED040B8F
:101EC00000F06AFC06B010BD68469DED040B00F002
:101ED0007BF810F0030011D0012818D09DED021BF3
:101EE0009DED000B02281AD000F08AFA51EC100B7D
:101EF00001F082FE06B041EC100B10BD9DED021BFF
:101F00009DED000B012000F0AFFB06B010BD9DED74
:101F1000021B9DED000B00F073FA06B010BD01200E
:101F200000F0A2FB51EC100B01F066FE06B041EC94
:101F3000100B10BD000000000000000000000000B9
:101F4000FB21E93F0000F07F00B52DED048BB0EEE2
:101F5000409AF0EE609A83B051EC190B02F014FB3A
:101F600041EC180B18EE100A18EE901A8DED008B4C
:101F7000002818BF0120084320F00040C0F17F6016
:101F800000F1E040C00F14D019EE101A19EE900ABB
:101F90008DED009B002918BF0121084320F000406F
:101FA000C0F17F6000F1E040C00F04BF0120FEF7E8
:101FB000B4F9B0EE480A03B0F0EE680ABDEC048B49
:101FC00000BD0000000000002DE9F14F04462DED9A
:101FD000020B2DED088B8AB09FEDE70B80ED020B15
:101FE000139EE74826F0004585420ADC9DED120B62
:101FF000002084ED000B0AB0BDEC088B03B0BDE8F7
:10200000F08FE0489FEDE0AB9FEDE1BBA84247DDDC
:10201000E14F9FEDE39B9FEDE48B9DED120B53ECA5
:102020001A2B51EC100B002E1CDD02F079FB41EC59
:10203000100BBD4208D053EC1B2B51EC100B02F0DF
:102040006FFBC4E900010BE053EC192B51EC100BB2
:1020500002F066FB53EC182B02F062FBC4E90001AE
:102060000120C8E701F006FE41EC100BBD4208D08C
:1020700053EC1B2B51EC100B01F0FCFDC4E90001EB
:102080000BE053EC192B51EC100B01F0F3FD53EC6A
:10209000182B01F0EFFDC4E900014FF0FF30AAE773
:1020A000C348A84279DB9DED120B51EC100B00F0F8
:1020B0008BFF41EC180B9FEDC00B53EC102B02F083
:1020C0007BF89FEDBF1B53EC112B01F0D3FD01F00A
:1020D000DDFF074602F009F841EC190B53EC1A2B0F
:1020E00002F06AF853EC182B02F042FA41EC180B9C
:1020F00053EC1B2B51EC190B02F05EF8DFF8C8A271
:1021000041EC100B4FEA15580125FA4453EC102B03
:1021100051EC180B02F004FB032DC4E900013DD083
:10212000C1F30A5005EB4511A8EB000011398142BB
:1021300034DA0AEB051BB0EE48AA9BED000BF0EE7B
:1021400068AA53EC102B51EC190B02F035F841EC56
:102150001B0B51EC1A0B53EC1B2B02F0E1FA41EC78
:10216000180B51EC1A0B53EC182B02F0D9FA53EC64
:102170001B2B02F0D5FA9BED020B41EC1A0B53EC32
:10218000102B51EC190B02F017F853EC1A2B02F03C
:10219000C7FA41EC100B6D1CB8E70EE0002EA8BF8B
:1021A0003846BFF628AF94ED000B51EC100B01F050
:1021B00023FDC4E9000178421DE7C6F3130040F493
:1021C000801EC6F30A50A0F2F530471100F01F053B
:1021D000C5F12000DDF848B0089000200690079077
:1021E0000520EC467949002D07EB0002794408BF31
:1021F00051F8221009D051F8223001EB8201AB4096
:102200004A68089922FA01F11943A1FB0E26A1FBA5
:102210000B131A449A4234BF0123002303EB060830
:102220000CEB8003D3E901A60E448E4234BF01219A
:10223000002192448A4411B1924502D903E09245AB
:1022400001D2012100E00021C3E901A641444CF87C
:102250002010011EA0F10100C4DC029800F1005022
:10226000850F0298DDE903678000DDF8148001F036
:102270003CFF41EC1A0B304601F04EFF9FED541B22
:1022800053EC112B01F098FF41EC1B0B384601F089
:1022900043FF9FED511B53EC112B01F08DFF41ECDF
:1022A000180B404601F038FF9FED4D1B53EC112BEE
:1022B00001F082FF41EC190B51EC180B53EC192B78
:1022C00001F0D8FC53EC1B2B01F0D4FC53EC1A2B7F
:1022D00001F0D0FCCDE90801002008909DED080B2D
:1022E00053EC1A2B51EC100B02F01AFA53EC1B2B87
:1022F00002F016FA53EC182B02F012FA53EC192BD9
:1023000002F036F99FED381B53EC112B01F054FF0E
:102310009FED370B41EC180B53EC102B9DED080B88
:1023200051EC100B01F048FF53EC182B01F0A2FC0C
:102330009FED310B41EC180B53EC102B9DED080B6E
:1023400051EC100B01F038FF53EC182B01F092FC0C
:1023500041EC100B139810F0004F06D06D4251EC79
:10236000100B01F049FC41EC100B284684ED000BEA
:1023700041E6000000000000000000000000000036
:10238000FB21E93F7CD9024000004054FB21F93F8A
:102390003163621A61B4D03DFB21F93F00000000B7
:1023A0000000601A61B4D03D7370032E8A19A33BFC
:1023B000FB2139410000000083C8C96D305FE43F54
:1023C000000000000000E03F12290000602800002B
:1023D000000000000000103E000000000000103C63
:1023E000000000000000103A182D4454FB21F93D74
:1023F0003326A611460B113C00000054FB21F93D89
:1024000010B52DED040B2DED088B82B0B0EE419A86
:10241000F0EE619A0B9820F000449FED4BABB4F1C5
:10242000795F11DA9DED0A0B51EC100B01F02EFED5
:10243000002801BFB0EE4A0AF0EE6A0A02B0BDEC15
:10244000088B04BF04B010BD9DED0A0B53EC102B9C
:1024500051EC100B01F0B0FE41EC180B3C4806218A
:10246000B0EE480AF0EE680A784400F081F853ECC8
:10247000182B51EC100B01F09FFE9DED0A0B41EC67
:102480001B0B53EC192B51EC100B01F095FE41EC9A
:10249000190B53EC1B2B51EC180B01F08DFE53EC78
:1024A000192B02F03DF99FED2C0B41EC190B53EC6D
:1024B000102B51EC180B01F07FFE41EC100B28485B
:1024C000844210DA53EC192B51EC100B02F028F96E
:1024D00053EC1A2B02F04CF841EC100B02B0BDEC9F
:1024E000088B04B010BD1F48A042BCBF9FED1E1B4F
:1024F0008DED001B06DBA4F500100190002000907C
:102500009DED001B51EC100B53EC112B02F008F960
:102510009DED000B41EC180B53EC102B51EC1A0BFA
:1025200002F0FEF841EC1A0B53EC192B51EC180B8E
:1025300002F0F6F853EC1A2B02F01AF841EC100BEB
:10254000CCE7000000000000000000000000F03FA9
:102550008425000000000000000000000000E03FB3
:102560003333D33F0000E93F000000000000D23FBA
:1025700070B504462DED028B4D1E00EBC500B0EE8C
:10258000408AF0EE608A90ED000B35F0060017D01F
:1025900053EC182B51EC100B01F00EFE41EC100B1C
:1025A0006D1E04EBC50090ED001B51EC100B53ECBD
:1025B000112B01F05FFB41EC100B35F00600E7D169
:1025C000022D36D0042D1CD0062D1CBFBDEC028B75
:1025D00070BD53EC182B51EC100B01F0EDFD94ED98
:1025E0000A1B53EC112B01F045FB53EC182B01F0A7
:1025F000E3FD94ED081B53EC112B01F03BFB41EC88
:10260000100B53EC182B51EC100B01F0D5FD94ED91
:10261000061B53EC112B01F02DFB53EC182B01F092
:10262000CBFD94ED040B53EC102B01F023FB41EC9C
:10263000100B53EC182B51EC100B01F0BDFD94ED79
:10264000021B53EC112B01F015FB53EC182B01F07E
:10265000B3FD94ED001B53EC112B01F00BFBBDEC13
:10266000028B41EC100B70BD31B504462DED040B0F
:102670002DED0A8BB0EE41BAF0EE61BA0B989DEDEC
:102680000A0B20F00040B0F1795F0DDA51EC100B2D
:10269000FFF7F6FA042808BF00F09AF89DED0A0B40
:1026A000BDEC0A8B05B030BD53EC102B51EC100B78
:1026B00001F082FD41EC180B9DED0A0B53EC182B39
:1026C00051EC100B01F078FD41EC190B2C48B0EEE9
:1026D000480AF0EE680A05217844FFF749FF9FEDAC
:1026E0002ACBB0EE40AAF0EE60AA9CB353EC1C2BB0
:1026F00051EC190B01F060FD41EC1C0B53EC1A2B53
:1027000051EC190B01F058FD9FED210B41EC190B19
:1027100053EC102B51EC1B0B01F04EFD53EC192B1D
:1027200001F0FEFF53EC182B01F046FD53EC1B2B80
:1027300001F0F6FF53EC1C2B01F0F2FF9DED0A1B9C
:1027400053EC112B01F014FFBDEC0A8B05B041ECEA
:10275000100B30BDFFE753EC1A2B51EC180B01F0B6
:102760002BFD53EC1C2B01F085FA53EC192B01F0D7
:1027700023FD9DED0A1B53EC112B01F07BFAE3E7DF
:102780000C24000000000000495555555555C5BFA3
:10279000000000000000E03F10B553EC102B51EC9E
:1027A000100B01F067FA41EC100B10BD00000000A7
:1027B0009FED050B10B553EC102B51EC100B01F0F5
:1027C0000DFB41EC100B10BD0000000000000000EC
:1027D0009FED050B10B553EC102B51EC100B01F0D5
:1027E000EBFC41EC100B10BD0000000000000010DD
:1027F000F0EE400A00EE100AB8EEC00A20EE800AA1
:102800007047000010B52DED068BF0EE408A18EEF3
:10281000900A02F06FF841EC1A0B9FED181BB0EE16
:102820004A0AF0EE6A0AFFF7A7FAB0EE409AF0EE15
:10283000609A51EC190B01F0EBF908EE100AB5EEB5
:10284000C08AF1EE10FA04DB18EE100A02F052F81A
:102850000BE018EE100A02F04DF841EC1A0B9FED58
:10286000070B53EC102B01F005FA41EC190B01F0AA
:10287000CFF900EE100ABDEC068B10BD182D4454A4
:10288000FB21194000BF704730B50A290EDA0369F1
:1028900001EB41050724AC40A3430361036901EB4D
:1028A00041050724AC402343036111E0C368A1F153
:1028B0000A0404EB44050724AC40A343C360C36887
:1028C000A1F10A0404EB44050724AC402343C36090
:1028D00030BD000010B504460A48806820F00100B1
:1028E000084988602146084800F05EFB054880687A
:1028F00040F00100034988600846806840F080404D
:10290000886010BD00200140706402401CB500BF0B
:102910002A48006840F001002849086000BF00BF55
:1029200026481430006840F480702449143108604F
:1029300000BF0120009000230322202101902048A5
:1029400000F0ECFF1D480C38006840F480701B4913
:102950000C3908600846006820F480700860194847
:10296000006820F440301849C1F804030846D0F844
:10297000040340F480301349086000201249486085
:1029800088600846406848600846406848600846D5
:10299000806888600846806888600846806888602B
:1029A0000846C06A20F47000C8620846C06AC8625F
:1029B0000846806840F0010088601CBD3038024045
:1029C0000000024004230140002001407CB5054680
:1029D000FFF79CFF002405E0E1B207225748FFF70C
:1029E00053FF641C062CF7DB5448406840F48070A9
:1029F000524948600846806840F480708860084604
:102A0000806840F4007088600846806840F00200EA
:102A100088600846C06A20F47000C8620846C06A30
:102A200040F4A000C862002048630846406B40F0B4
:102A3000200048630846406B40F400604863084645
:102A4000406B40F4C03048630846406B40F480005F
:102A500048630846406B40F02060486301200090C6
:102A60000023032201460190354800F057FF012062
:102A700000900023032202210190314800F04EFF14
:102A80000120009000230322042101902C4800F033
:102A900045FF0120009000230322082101902848CF
:102AA00000F03CFF01200090002303221021019040
:102AB000234800F033FF012000900023032220214F
:102AC00001901F4800F02AFF00202B461B4A4C3281
:102AD000014600901B4800F03DFA1A480068194969
:102AE00008600846006808600846006808600846F4
:102AF000006840F4806008600846006840F40060A8
:102B000008600846006840F4005008600846006805
:102B100040F4803008600846006808600846006895
:102B200008600846006840F01000086002233C225C
:102B30000321084600F062FF7CBD00000020014038
:102B400000000240706402407CB504460D4600BFA0
:102B5000B448006840F00400B249086000BF00BFFC
:102B60000846006840F00100086000BF00BF08464A
:102B7000006840F00400086000BF00BF084600681D
:102B800040F01000086000BF00BF0846006840F039
:102B90000400086000BF00BF0846006840F0100055
:102BA000086000BF00BF0846006840F001000860F0
:102BB00000BF00BF9B481430006840F002009949F4
:102BC0001431086000BF0120009000230222402140
:102BD0000190954800F0A2FE0120009000230222FF
:102BE00080210190914800F099FE0120009000237F
:102BF0000222802101908C4800F090FE012000907C
:102C00000023022281030190894800F087FE012001
:102C100000900023022201020190834800F07EFE12
:102C20000120009000230222C1030190804800F09F
:102C300075FE0120009000230222402101907B4874
:102C400000F06CFE02224021774800F027FE0422AB
:102C50008021764800F022FE02228021724800F096
:102C60001DFE03224FF48041714800F017FE02223E
:102C7000D1016D4800F012FE03224FF400416C4870
:102C800000F00CFE04224021684800F007FE69486D
:102C90000460001F056001205FE0022817DC654921
:102CA00014390968421ED200121D062393401943AD
:102CB000604A143A116011460968421ED200D21CC3
:102CC0000123934019435B4A143A116018E0042829
:102CD00016DC584910390968C21ED200121D06239D
:102CE00093401943534A103A116011460968C21EB5
:102CF000D200D21C0123934019434E4A103A11606E
:102D00004C490C390968421E930001229A40114334
:102D1000484A0C3A116011460968421E9200521C42
:102D2000012393401943434A0C3A11601146096844
:102D3000421E9200921C0123934019433D4A0C3AD3
:102D4000116011460968421E9200D21C0123934073
:102D50001943384A0C3A1160401C04289DDB6FF07F
:102D600070003449283908600846006840F0400087
:102D700008603048183000682E491831086008464D
:102D8000006840F480400860084600680860084613
:102D9000006840F48050086026482C38006840F0F5
:102DA000800024492C3908600846006840F400700F
:102DB000086020482038006840F001001D49203993
:102DC000086019201021002804DB0A07130E1A4A94
:102DD000135406E00A07160E184A00F00F031B1FD3
:102DE000D65400BF1920002809DB00F01F02012182
:102DF00091404209920002F1E022C2F8001100BFA6
:102E00000C481C38006820F001000A491C39086091
:102E100008482C38006840F0010006492C39086049
:102E20007CBD000030380240000802400000024033
:102E3000000402402C04014000E400E018ED00E032
:102E400010B5124B1B6823F0FF03104C2360234680
:102E50001B680B43236023461B6843F40043236035
:102E6000012A04D0022A06D0032A0CD107E0074B1E
:102E7000103B186008E0054B0C3B186004E0034B66
:102E8000083B186000E000BF00BF10BD44040140D3
:102E900010B52DED068B0446204601F026F941ECD5
:102EA0001A0B9FED080B53EC102B01F085F941EC48
:102EB000190B00F0ADFE08EE100AB0EE480ABDECAA
:102EC000068B10BD1283C0CAA145B63F4FF0E0216A
:102ED000096941F004014FF0E022116105490860E1
:102EE0001146096941F0010111616FF070415161B2
:102EF000704700000000002010B504464FF47A71BE
:102F000004FB01F000F002F810BD000070B50346AC
:102F100000224FF0E02675690D4E366803FB06F47B
:102F20004FF0E026B16910E04FF0E026B06988422A
:102F30000BD0884202D20E1A324402E02E1A0E44FE
:102F400032440146A24200D300E0EDE700BF70BD6D
:102F5000000000202DE9F04104460D4617461E46AC
:102F6000DDF818800E48844206D90E48006840F407
:102F700080000C49086005E00A48006840F4001031
:102F8000084908600520FFF7B7FF680700092060BF
:102F9000A760E660C4F8108000206060BDE8F081A2
:102FA000B860024030380240026822F0010202603C
:102FB00000BF026802F00102002AFAD141600268F3
:102FC00042F001020260704782B0CDE9000121F0B9
:102FD000004001909DED000B02B051EC100B7047CA
:102FE00000BF054A126802F04002002AF9D0C2B2BE
:102FF000014B5A60704700000010014000B50D21E0
:103000000C2000F0A6F900B200BD000070B5054626
:103010000C4600BF1048006840F002000E490860EE
:1030200000BF0E480560001F04600C48203800688F
:1030300040F0010009492039086008482C38006830
:1030400040F0010005492C39086002231D220321AC
:10305000012000F0D3FC70BD403802402C04004039
:103060001CB500BF1148006840F002000F4908601D
:1030700000BF00BF0846006840F00200086000BFC3
:10308000012000900023024601020190084800F050
:1030900045FC01200090034602464102019004488D
:1030A00000F03CFCFEF7D8FB1CBD000030380240AD
:1030B000000402401CB500BF1548006840F0200025
:1030C0001349086000BF00BF0846006840F02000B8
:1030D000086000BF012000900023024641020190D9
:1030E0000C4800F01BFC01200090002302468102E6
:1030F0000190084800F012FC01225102054800F03E
:1031000001FC01229102034800F0FCFB1CBD000001
:1031100030380240001402402DED068B84B000BF11
:103120000723022208214FF4A87000F0BFFCA8205A
:10313000FFF7CCFE4FF4E131542000F0D7FCFFF74D
:10314000B9FFFFF78DFF2448FFF740FC4FF496705E
:10315000FFF7C0FBFEF79AF800F0E6F8A72140F26F
:10316000E730FFF7F1FC42F2CF016320FFF74EFF9B
:1031700030E0FEF721FAFEF731FA1848807A01288C
:1031800007D100BF1648006880F400701449086039
:1031900000BF1248007901281AD11248006801F0D6
:1031A000A9FB41EC1A0B1048006801F0A3FB41ECAD
:1031B000180B0E48006801F09DFB41EC190B8DEDDA
:1031C00002AB8DED008B53EC192B09A0FDF75CF8D9
:1031D000FEF720F8CDE700009001002080010020DC
:1031E0001414024048000020440000204000002049
:1031F000643A25662C25662C25660A0010B52DED4F
:10320000068B3E4890ED000A3D48D0ED000AB4EE32
:10321000E00AF1EE10FA0AD2384890ED000A394877
:10322000D0ED000A30EE200A344880ED000A344820
:10323000006801F05FFB41EC1A0B9FED330B53EC80
:10324000102B00F0B9FF41EC180B2C48006801F07E
:1032500051FB41EC190B53EC182B01F053F929D217
:103260002B4890ED000A2B48D0ED000AB4EEE00A9E
:10327000F1EE10FA18D2264890ED000A10EE100A6E
:1032800001F038FB41EC190B9FED230B53EC102B95
:1032900000F0F0FC41EC180B00F0BAFC00EE100A54
:1032A0001B4880ED000A05E01A4890ED000A184816
:1032B00080ED000A1A48D0ED000A154890ED001A7A
:1032C00070EE810AB0EE600AFFF79CFA144880EDB8
:1032D000000A0720124991ED000AFFF789FAB0EEC3
:1032E000408AB0EE481ADFED0F0A044890ED000A5C
:1032F00000F046F8BDEC068B10BD0000A4000020D5
:10330000A8000020AC000020000000000000E03F0A
:10331000B0000020B4000020F168E388B5F8E43E76
:103320002C0000200000000010B5FEF705F910BDCC
:1033300018B50446FF2000906B4601222146362036
:10334000FEF7BEFB4FF4C870FEF7D6F99DF80000FB
:1033500018BD2DE9F04106460C464FF6FF750027D3
:103360004FF000082046FFF7E3FF07463046FFF71F
:10337000DFFF80464FEA08253D432846BDE8F0813F
:1033800010B52DED108B82B0F0EE408AB0EE418A80
:103390007A48D0ED000A78EE200AB0EE600AFFF716
:1033A00031FAB0EE408A18EE100A01F0A3FA41ECAF
:1033B0001C0BB0EE4C0AF0EE6C0AFEF761FDB0EEAD
:1033C00040AAF0EE60AAB1EE680A10EE100A01F011
:1033D00091FA41EC1B0B53EC1A2B00F0EDFE41EC83
:1033E000190B00F015FC6649086018EE100A01F090
:1033F00081FA41EC1C0BB0EE4C0AF0EE6C0AFEF7C1
:1034000057FCB0EE40AAF0EE60AA18EE900A01F068
:1034100071FA41EC1B0B53EC1A2B00F0CDFE41EC82
:10342000190B00F0F5FB574908605748D0ED000A2A
:10343000B0EE001A80EE810A5148D0ED000A30EE5D
:10344000200A524880ED000A4F4890ED000AF0EE45
:10345000000A80EE201A11EE104A204601F04AFAC6
:1034600041EC1A0B4648006801F044FA41EC1D0B90
:103470004448006801F03EFA41EC1F0B9FED440BFD
:10348000FEF762FD8DED000B53EC1F2B9DED000B45
:1034900051EC100B00F090FE41EC1E0B53EC1D2B79
:1034A00001F03EF941EC1C0B9FED3B0B53EC102B54
:1034B00000F094FC41EC1B0B53EC1A2B00F0DAFBF0
:1034C00041EC190B00F0A4FB354908602E4890ED43
:1034D000000AF0EE000A80EE201A11EE104A204693
:1034E00001F008FA41EC190B2648006801F002FAD5
:1034F00041EC1D0B9FED260BFEF726FDB0EE40EADA
:10350000F0EE60EA53EC1D2B51EC1E0B00F054FE64
:10351000CDE900011A4890ED000AB1EE400A10EE24
:10352000100A01F0E7F941EC1C0B9DED000B53EC88
:10353000102B01F0F5F841EC1B0B9FED170B53EC32
:10354000102B00F04BFC41EC1A0B53EC192B00F044
:1035500091FB41EC1F0B00F05BFB12490860084631
:1035600090ED001A0E48D0ED000A084890ED000AD0
:1035700000F01AF802B0BDEC108B10BD3400002032
:10358000380000203C0000202800002040000020DF
:1035900000000000000008400000000000000040A3
:1035A000440000204800002010B52DED048BB0EE43
:1035B000408AF0EE608AB0EE419A4F4890ED000AE2
:1035C000C8EE000AF5EEC00AF1EE10FA02D29FED45
:1035D0004B0A13E0484890ED000AC8EE000AB7EE27
:1035E000000AF4EEC00AF1EE10FA02DDB7EE000AAE
:1035F00004E04148D0ED000A88EE200A404880ED02
:10360000000A3D4890ED000AC8EE800AF5EEC00AB7
:10361000F1EE10FA02D29FED390A13E03648D0EDF0
:10362000000A88EEA00AF7EE000AB4EEE00AF1EE16
:1036300010FA02DDB7EE000A04E02F48D0ED000AD0
:1036400088EEA00A2F4880ED000A2B4890ED000A72
:10365000C9EE000AF5EEC00AF1EE10FA02D29FEDB3
:10366000270A13E0244890ED000AC9EE000AB7EEDD
:10367000000AF4EEC00AF1EE10FA02DDB7EE000A1D
:1036800004E01D48D0ED000A89EE200A1E4880EDB6
:10369000000A1B4991ED000ADFED1C0A20EE200A0A
:1036A000BDEEC00A10EE101A88B201226421FFF7A5
:1036B000C7FB144991ED000ADFED140A20EE200A41
:1036C000BDEEC00A10EE101A88B202226421FFF784
:1036D000B7FB0D4991ED000ADFED0C0A20EE200A40
:1036E000BDEEC00A10EE101A88B203226421FFF763
:1036F000A7FBBDEC048B10BD2800002000000000DB
:103700004C000020500000205400002000007A44AB
:10371000F0B504460D460021002000265C4F3F68AE
:1037200047F48037DFF868C1CCF8007000E0491C2E
:10373000574F3F6807F400371FB947F6FF77B94284
:10374000F5D347F6FF77B94201D101209EE0504FF3
:1037500040373F6847F08057DFF834C10CF1400C28
:10376000CCF800704B4F3F6847F44047DFF824C166
:10377000CCF80070464F3F1D3F6805F03F0C47EA0C
:103780000C07DFF80CC10CF1040CCCF80070674694
:103790003F6847EA8417CCF8007067463F684FF0EF
:1037A000010CCCEB520C47EA0C47DFF8E4C00CF1FB
:1037B000040CCCF8007067463F6847EA0367CCF812
:1037C000007067463F6847F48007CCF800700CF142
:1037D00004073F680CF1040CCCF8007067463F68A2
:1037E00047F4A057CCF8007067463F6847F400479D
:1037F000CCF80070264F3F6847F08077DFF890C024
:10380000CCF80070002105E0491CB1F5001F01D380
:10381000022005E01E4F3F6807F00077002FF3D02D
:1038200000BF1D4F3F6847F48077DFF86CC0CCF8CD
:10383000007067463F6847F40077CCF80070674631
:103840003F6847F48067CCF8007067463F6847F0F0
:103850000507CCF800700E4F08373F6847F00207A5
:10386000DFF82CC00CF1080CCCF8007000210AE045
:10387000074F08373F68C7F38106491CB1F5001FA1
:1038800001D3042001E0032EF2D100BFF0BD0000FF
:103890000038024000700040003C0240F0B5034692
:1038A00000200024002500BF29E0012606FA00F4CC
:1038B00001EA0405A54221D1C70803F1200656F804
:1038C000276047074FEAD76C0F2707FA0CF7BE436C
:1038D0004FEAD00C03F1200747F82C60C70803F12A
:1038E000200656F827604707FF0E02FA07F73E4307
:1038F0004FEAD00C03F1200747F82C60401C102839
:10390000D3D3F0BD02F001031BB183690B43836184
:1039100003E0836943EA0143836170472DE9F0477F
:103920000C46DDE90867002100258C4600BF60E0F9
:103930004FF0010808FA01F504EA050CAC4557D12F
:10394000D0F800804FEA410A4FF0030909FA0AF95A
:1039500028EA0908C0F80080D0F800804FEA410941
:1039600002FA09F948EA0908C0F80080012A01D0E2
:10397000022A27D1D0F808804FEA410A4FF0030904
:1039800009FA0AF928EA0908C0F80880D0F808807E
:103990004FEA410906FA09F948EA0908C0F808801F
:1039A000D0F804904FF0010808FA01F829EA080954
:1039B000C0F80490D0F8048003FA01F948EA090835
:1039C000C0F80480D0F80C804FEA410A4FF0030998
:1039D00009FA0AF928EA0908C0F80C80D0F80C8026
:1039E0004FEA410907FA09F948EA0908C0F80C80CA
:1039F000491C10299CD3BDE8F08700002DE9F04157
:103A00000746884614461D46284600F033F8C5F19F
:103A1000040007FA00F60F20284100EA08000643D8
:103A200006F00F06E21704EBD2625211920002F187
:103A3000E022D2F800212146E31704EBD3635B11A7
:103A4000A4EB431C012303FA0CF31A432046E317AB
:103A500004EBD3635B119B0003F1E023C3F8002167
:103A60000348005D40EA061001490855BDE8F081B1
:103A700000E400E00146072323EA01021202054B9D
:103A800018684FF6FF031840034B18431043014BCF
:103A9000186070470CED00E00000FA054A0A520277
:103AA0000243014B1A60704708ED00E0F0B5044690
:103AB0000D4616461F4601200B49086000200A49A2
:103AC00008310860091F086007490C3108603B464F
:103AD000324629462046FFF71BFE00214FF00060CA
:103AE000FFF7DCFFF0BD0000003802407CB5064661
:103AF0000C4600BF3148006840F001002F490860C3
:103B000000BF00BF0846006840F00100086000BF29
:103B100000BF2A481430006840F0100027491431D3
:103B2000086000BF012000900023022241020190A2
:103B30002348FFF7F3FE01200090002302228102B8
:103B400001901F48FFF7EAFE07224FF400711C485E
:103B5000FFF7A4FE07224FF480611948FFF79EFE8D
:103B60001848704300EB5400B0FBF4F5164885602C
:103B700000201549C8600846C068C8600846C0688B
:103B8000C8600846C06840F00800C8600846C068C1
:103B900040F00400C8600846C06840F02000C860DB
:103BA0000223252203210846FFF728FF0648C068A4
:103BB00040F400500449C8607CBD00003038024029
:103BC0000000024040420F000010014010B50029E3
:103BD0000AD00878002807D005487844FCF712FF7F
:103BE000002801D0002010BD0248784410BD00001C
:103BF000EA0F0000E20F000081F00041704780F002
:103C00000040704721F00041704720F000407047AD
:103C100021F00042A2F16052B2F5801F01F0004392
:103C200028BFD2F17F6C0BD95FEA001C43EAC202C5
:103C300042EB507018BF704728BF20F0010070475A
:103C4000B2F5801FBCBF184670474FEA410C1CF507
:103C5000001F02D2084600F0C3BE70B500F056FB4C
:103C600000000089FFF7F6BF4FF00040A0F580008C
:103C70007047000010B591EA030F48BF83F000437E
:103C800000F15685841A71EB030C05D2121943EB2F
:103C90000C03001B61EB0C01DFF824E14FEA115427
:103CA000A4EB135C1EEA430F18BF9EEA445F73D077
:103CB00023EA0E03DCF1200E21EA045143F48013C1
:103CC00032D322FA0CFE10EB0E0023FA0CFE41EB6D
:103CD0000E01CCF1200E03FA0EFE10EB0E0051F196
:103CE0000001B1F5801FCCF1200E32D201EB04515E
:103CF00012FA0EF2BDE8104058BF7047401C38BFA2
:103D00005FEA420218BF7047002814BF20F001008C
:103D100041F100014FEA410313F5001F38BF70471E
:103D2000A1F1C04100F0E8BB012A43EB0302ACF172
:103D3000200CDCF11F0E32BF4FF0000E23FA0CF303
:103D400010EB030041EB0451B4EB115FD0D0A1EBB9
:103D5000045101F5801149085FEA300001EB04517C
:103D60000ED350F1000038BF12FA0EFE08D1BDE8A4
:103D70001040C9E7401C38BF5FEA4202CAD1C3E71E
:103D8000BDE810404FEA410313F5001F38BF7047EC
:103D9000A1F1C04100F0B0BB9EEA445F08D011EA37
:103DA0005E0FBDE8104004BF01F0004100207047E5
:103DB000BDE8104070B500F0A9FA00BF64FBBE3E3C
:103DC0000000E0FF491058BFC1F140415B1058BFEF
:103DD000C3F140438B42EFF3008070472DE9C041AF
:103DE00030B4DFF8A0C23CEA111418BF3CEA131447
:103DF00000F0EC8081EA03051CEA111444EAD57452
:103E000018BF1CEA131500F0C780A4EB05044FF09F
:103E1000004545EAC12145EAC32341EA505143EA3E
:103E2000525304F17F74994204F500344FEAC020E4
:103E30004FEAC22208BF904200F09C804FEA13650F
:103E40000FF24016765D4FEA134506FB05F7C7F102
:103E5000807706FB07F74FEAD737A7FB0368764260
:103E6000C8F58038A7FB06CE38BFA8F1010807FBCC
:103E700008E64FF0000EA6FB028CE6FB03CEDCF159
:103E8000000CCEF1004E38BFAEF1010EA6FB0C586F
:103E90004FF000074FF00005E6FB0E87A1FB08C6B8
:103EA000A0FB07CE16EB0E0645F10005E1FB07650A
:103EB00015F1E04E7EBFA4F580345FEA46066D4101
:103EC00016F1800745F100054FEA17274FEA06660D
:103ED00047EA0567A6F1DE46B6F1805F4FEA152591
:103EE0001FD9384624F0010C05EBC471BCF1FE6FFC
:103EF00001EB0C1102D8F0BCBDE8008124425CBF8C
:103F000001F5801E9EEAC47F02D4F0BCBDE80081AA
:103F1000244238D4F0BCA1F1C041BDE8004100F01A
:103F2000EBBA4FEAD22242EA43524FEAD323A7FB2D
:103F300002864FEAD02040EA415007FB03661EEAA2
:103F40000E0F4FEAD12105FB026658BFA6EB0056C3
:103F5000B6EB00564FEA520E4EEAC37E18EB0E0E39
:103F600056EB530EBDD518EB02085E417F1C55F190
:103F70000005B6E74FF480154FF000074FF000063C
:103F80004FF00008ADE7F0BC4FF0000001F1C04178
:103F900001F00041BDE8008111EA0C1F0CEA131585
:103FA00000D00CE013EA0C1F00F025804FF0000059
:103FB000F0BC81EA030101F00041BDE80081F0BCE2
:103FC000BDE8004181EA030100F096BAF0BCBDE80B
:103FD000004170B500F09AF9097EFC3E00F007B888
:103FE00081EA03014FF0000001F00041704781EACF
:103FF000030100F081BAF0BCBDE800414FF00000C1
:1040000021497047FFFDFBF9F7F5F4F2F0EEEDEB17
:10401000E9E8E6E4E3E1E0DEDDDBDAD8D7D5D4D3C6
:10402000D1D0CFCDCCCBCAC8C7C6C5C4C2C1C0BF12
:10403000BEBDBCBBBAB9B8B7B6B5B4B3B2B1B0AF18
:10404000AEADACABAAA9A8A8A7A6A5A4A3A3A2A1FC
:10405000A09F9F9E9D9C9C9B9A99999897979695B7
:1040600095949393929191908F8F8E8E8D8C8C8B53
:104070008B8A8989888887878685858484838382DB
:10408000828181800000FF070000F87F4FEA410332
:104090004FEA5353A3F58063D3F11E03C8BFD3F196
:1040A000210C0CDD4FF0004242EAC12242EA50529C
:1040B00032FA03FC8CEAE17CACEBE1707047102B28
:1040C000C4BF0020704703F5787CBCF1FF3F04D0EB
:1040D0006FF0004282EA2100704770B500F016F9D7
:1040E0004992248000207047F2E710F0004248BF58
:1040F0004042B0FA80F310FA03F10AD0C3F11D0375
:1041000003F580634FEA415002EB035202EBD121E9
:1041100070474FF000007047B0FA80F310FA03F1D7
:104120000AD0C3F11D0303F580634FEA41504FEA03
:10413000035202EBD12170474FF00000704700009E
:1041400051EA030C17D41CF5801F58BFBCF5801F23
:1041500000F10680994218BF704708BF904270472F
:1041600007D711F5801F58BF13F5801F19D4994246
:104170007047894270471CF5801F08D5BCF5801F29
:10418000F7D58B4218BF704708BF824270474FF483
:10419000001C1CEB410F38BF1CEB430F01D28B42BC
:1041A000704770B500F0B2F8922449004FF000510A
:1041B0004FF08053FFF706BEDFF848C170B51CEA28
:1041C000111E1EBF1CEA13159EEA0C0F95EA0C0F78
:1041D00000F06F8081EA030423EA4C134EEAD47E98
:1041E00021EA4C1141F4801143F48013AE44A1FB49
:1041F000024CA0FB0365AEF17F7E361955EB0C0532
:10420000A1FB034C4CF10003A0FB021C16EB0C06B7
:10421000654153F10003094218BF46F0010613F44B
:10422000007F0BD14FEA03314FEA0530340341EAF6
:10423000155140EA16506FF003020AE04FEAC3211D
:104240004FEAC520F40241EA555140EA56506FF05A
:10425000020202EB2E4201EB025585EACE710AD032
:104260005FEA440C18BF24F0004450F1000041F113
:10427000000120EAD47040F2FE7C624500D270BD9D
:10428000A84214BF4FF080444FF04044002E08BFB6
:104290000024BEF1806FA8BFA1F1C041BDE870400D
:1042A00080F22A814FF0000001F1C04101F000418D
:1042B00070479EEA0C0F0CEA131518BF95EA0C0F15
:1042C00006D04FF0000081EA030E0EF0004170BDF1
:1042D00000F01CF88900013E00F007B800F009B8B2
:1042E0004FEA430C5FEA5C5C08D081EA030100F00E
:1042F00003B94FEA410C5FEA5C5CF6D14FF0000075
:10430000014970470000FF070000F87F0EF1020E20
:104310002EF0030E5EF8046B364205D4012A43EBFF
:10432000030515F5001F12D8012841EB010C1CF5FF
:10433000001F0CD80ED14FEAD17C15F5001F0CEBF5
:104340004C0C0CF1020C08BF4CEBD37C04E04FF09A
:10435000080C01E04FEAD37C0CEB4C0526FA05F67D
:1043600006F00706B6F1040C06D20EEB860CBDE88B
:1043700070404CF0010C6047DFE80CF0090B0202C2
:104380004FF000414FF00000A1F5002170BD19462B
:104390001046012851EB010418BFD4F5001484BF66
:1043A000002001F0004170BDDFF844C170B53CEA67
:1043B000111418BF3CEA131500F08F8011F1004F63
:1043C0001CEA13150CEA111468BF45F0050518BF67
:1043D00011EA0C1F00F079802E4621EA4C1123EAE5
:1043E0004C1341F4801143F48013A5F58035AC42A1
:1043F0003DDD801A9941A4F5803609D54042C1F1CE
:10440000000134BFB1F10101B1F1000185F00105F6
:1044100011F4F01F08D011F4801FE8D1400041EBE7
:104420000101A4F58034F6E721F00041B1FA81F6EC
:10443000202E04BFB0FA80FE0EF12006A6F10B0676
:10444000B6F1200EA4EB06440CD2C6F1200E01FA00
:1044500006F120FA0EF641EA0601CEF1200600FA36
:1044600006F003E000FA0EF14FF00000BFE750EA5B
:10447000410E23D04FEA244EBEEB254F0FDB99426D
:1044800008BF904204D00AD3520043EB0303B0E7C5
:104490004FEA1646B6EB144F08BF85F00105B4F598
:1044A000803401EB041181EAC57100DB70BD01F1BC
:1044B000C0414FF0000001F0004170BD4FEA45716E
:1044C0004FF0000001F0004170BD1CEA131F09D03D
:1044D0004FF0000001F0004170BDFFF717FF00BF73
:1044E000EDFFFF3EBDE870404FF00000014970470E
:1044F0000000FF070000F87F0808A0F500114FEA50
:104500003101704753EA010C17D41CF5801F58BFC6
:10451000BCF5801F00F106808B4218BF704708BFB2
:104520008242704707D713F5801F58BF11F5801FCF
:1045300019D48B4270479B4270471CF5801F08D5E9
:10454000BCF5801FF7D5994218BF704708BF90424D
:1045500070474FF4001C1CEB430F38BF1CEB410F9E
:1045600001D2994270470FB40CBC03BCFFF719BECF
:1045700091EA030F10B581F000413FF583AB83F062
:10458000004300F0D5B800002DE9F04101F5801C92
:10459000BCF5001FC0F2A9804FEA115C21EA0C5162
:1045A0000CF1FD0C41F480115FEA5C0C0CF5C07C51
:1045B00001D34000494130A4890241EA9051870269
:1045C0008E0E0A0CA45D04FB04F602FB06F6C6F18F
:1045D0004046A4FB0662F60D46EA422606FB06F4B8
:1045E000A4FB01235242C3F1404338BF5B1EA6FB2C
:1045F00002420024E6FB0324D20B42EA4446A6FB17
:104600000623A1FB02E2A3FB07E4E3FB6142644251
:10461000C2F1404E38BFAEF1010EA6FB04234FF0AD
:104620000002E6FB0E32A2FB03463400E2FB6264AA
:10463000A1FB06E6A4FB07E8E4FB61687642C8F14B
:10464000405838BFA8F10108A2FB06E4A3FB08E527
:10465000E2FB6854A1FB05E6A7FB04E8E1FB6486E6
:1046600018F1200556F10006A809A8F11B08B109A8
:1046700008F03F08B8F10A0F40EA86601CD901EB48
:104680000C51BDE8F08100BFFCF5EEE8E2DDD8D3C7
:10469000CFCBC7C3C0BDB9B6B4B1AEACA9A7A5A3B3
:1046A000A19F9D9B9A9896959392908F8D8C8B89C4
:1046B0008887868584838281A0FB006800FB01F2E5
:1046C00008EB4208B8EB872807D5341858EB0104EB
:1046D000D5D5401C51F10001D1E7341A78EB010423
:1046E000CDD4401E71F10001C9E75FEA4C0C5FEACE
:1046F0009C5C0DD105D34FF0000001F00041BDE8F6
:10470000F081BDE8F04170B5FFF700FE6DDBFFBE44
:10471000BDE8F0414FF00000004970470000F87F0D
:1047200010B591EA030F48BF83F000433FF5AAAAF2
:10473000841A71EB030C07D212198CF0004C43EB76
:104740000C03001B61EB0C01DFF8A4E14FEA1154EC
:10475000A4EB135C1EEA430F18BF9EEA445F00F00F
:10476000B08023EA6E03524221EA0451C3EB6E0388
:1047700038BF5B1EDCF1200E25D322FA0CFE10EBB5
:104780000E0043FA0CFE41EB0E01CCF1200E03FAB1
:104790000EFE10EB0E0051F10001CCF1200E29D4D9
:1047A00012FA0EF201EB0451BDE8104058BF7047F9
:1047B000401C1CBFB2F1004F704700280CBF491CC1
:1047C00020F00100704712EB020E43EB030218BF0A
:1047D0004FF0010E4EEA4202ACF1200CDCF11E0E4D
:1047E00054D943FA0CFE10EB0E0051F1FF31CCF11D
:1047F0001E0ED5D50EF1010E12FA0EFE404141EB10
:10480000010101EB445C5FEA5C5C10D910EBDE70E7
:1048100001EB045138BFBEF1004FBDE8104018BF96
:10482000704700280CBF491C20F00100704730D2AF
:104830004FEAD42C11F5001124F400641BD0B1FA16
:1048400081F20B3AA41AA41ED2F12003914030FA4F
:1048500003F31943904001EBCC71002C01EB0451A0
:10486000BDE81040A8BF704701F1C0414FF0000003
:1048700001F000417047B0FA80F310FA03F100D163
:1048800010BDE41A173C4805C90AE4E701EB0451DE
:1048900010BD491001EB0451BDE810404FEA300053
:1048A00002E04FF0000170474A0008BF0042F8D014
:1048B000B2F5001F28BF704701F000414FF0000023
:1048C00070479EEA445F07D011EA5E0FBDE81040D2
:1048D00004BF002100207047BDE8104070B5FFF70D
:1048E00015FD00BF40DFF63E83F0004110467047E3
:1048F0000000E0FF43004FEAD30C4FEA3C0C43407A
:104900001FBF40070CF1605113F0FE4F70471CF0C1
:10491000006F03D100200CF0004170470CF0004301
:1049200043EA507010B540EACC0000F00EF800BF2A
:10493000000000924FEA0001FFF7DEBD4FF000419A
:104940004FF00000A1F5002170470EF1020E2EF08D
:10495000030E5EF8044B244204D44FEA4102B2F144
:104960007F4F11D84FEA4003B3F17F4F0CD80ED1DF
:104970004FEAD07CB2F17F4F0CEB4C0C0CF1020CE7
:1049800008BF4CEBD17C04E04FF0080C01E04FEA8B
:10499000D17C0CEB4C0324FA03F404F00704B4F1CB
:1049A000040C06D20EEB840CBDE810404CF0010C58
:1049B0006047DFE80CF0070802024FF00040A0F566
:1049C000800010BD0846420018BFD2F1807288BF37
:1049D00000F0004010BD4FF04070E1EE100A70474B
:1049E000FF2141EAD050C0057047FBF775BD0000BC
:1049F0004C5555555555A53F7751C1166CC156BFFD
:104A00009015CB19A001FA3EAD529C804F7E92BE0C
:104A1000C4B1B4BD9EEE213ED43888BEE9FAA8BD2B
:104A200000004054FB21F93F3163621A61B4D03D6C
:104A30000000601A61B4D03D7370032E8A19A33B45
:104A40000000002E8A19A33BC14920259A837B3997
:104A500000000000000000006E83F9A22915444EFA
:104A6000D15727FCC0DD34F5999562DB4190433C7A
:104A7000AB6351FE61C5BBDE3A6E24B7E0D24D4256
:104A8000EA2E49061C92D1091CEB1DFE3EA729B156
:104A9000F53582E88444BB2E26709CE9417E5FB4E4
:104AA00039D69139F43953838B5F849C3B28F9BD07
:104AB000FF97F81F0F9805DE8B112FEF1F6D0A5A15
:104AC000CF7E366DB709CB27663F464F2DEA5F9EF6
:104AD000C7BA27757BF1E5EBF739073DEA92528AB1
:104AE000B15FFB6B085D8D1FA6F810111111813F9E
:104AF000D561C119A0012ABF7DFEB157E31DC73E94
:104B0000EB9C2B8AE6E55ABE7CD5CF5A3AD9E53DD7
:104B100002400000000000A000000000054000006E
:104B2000000000C8000000000C4000000000409C95
:104B300000000000194000000020BCBE0000000082
:104B400034400000BFC91B8E00000004B5400000C7
:104B5000504BCFD06607E2CF010000006C4100004F
:104B60003E8251AADFEEA73401000000D9420000C6
:104B7000DCB5A0E23A301F97FFFFFFFFB44500000D
:104B8000FD25A0C8E9A3C14FFFFFFFFFFF3F0000C5
:104B90000000008000000000FF3F000000000080D7
:104BA00000000000E04B000800000020B8000000FA
:104BB000C4010008984C0008B800002090070000CD
:104BC000E00100081C00000043000000F8FFFFFFA8
:104BD0000C0000000E0000000F0000002E0000007E
:104BE00000000000000000000000000000000000C5
:104BF00000000000000000000000000000000000B5
:104C00000000000000000000000040410000000023
:104C10000000000000000000000000000000000094
:104C20000000000000000000000000000000000084
:104C30000000000000000000000000000000000074
:104C40000000000000000000000000000000000064
:104C500000000000000000000C010000F402000051
:104C60000000000000000000000000000000000044
:104C70000000000000000000000000000000000034
:104C80000000000000000000000080406F12833A26
:084C90006F12033A17B7513A05
:040000050800018965
:00000001FF
