:020000040800F2
:10000000E005002029020008370200083902000834
:100010003B0200083D0200083F020008000000000B
:100020000000000000000000000000004102000885
:1000300043020008000000004502000847020008D3
:100040004902000849020008490200084902000864
:100050004902000849020008490200084902000854
:100060004902000849020008490200084902000844
:100070004902000849020008490200084902000834
:100080004902000849020008490200084902000824
:100090004902000849020008490200084902000814
:1000A00049020008710300084902000849020008DB
:1000B000490200088D0300084902000849020008AF
:1000C00049020008490200084902000849020008E4
:1000D00049020008F103000849020008490200082B
:1000E00049020008490200084902000849020008C4
:1000F000C10300084902000849020008490200083B
:1001000049020008490200084902000849020008A3
:100110004902000849020008490200084902000893
:10012000F9020008490200084902000849020008D3
:100130002D0300084902000849020008490200088E
:100140004902000849020008490200084902000863
:100150004902000849020008490200084902000853
:100160004902000849020008490200084902000843
:100170004902000849020008490200080000000086
:10018000490200084902000800F002F800F03CF8BB
:100190000AA090E8000C82448344AAF10107DA45E2
:1001A00001D100F031F8AFF2090EBAE80F0013F0F8
:1001B000010F18BFFB1A43F0010318471C2D000064
:1001C0003C2D0000103A24BF78C878C1FAD85207F5
:1001D00024BF30C830C144BF04680C6070470000C1
:1001E0000023002400250026103A28BF78C1FBD840
:1001F000520728BF30C148BF0B6070471FB502F0DF
:10020000D0FD1FBD10B510BD00F048F81146FFF736
:10021000F5FF01F0FDF900F066F803B4FFF7F2FF17
:1002200003BC00F027FF00000B48016841F4700197
:1002300001600A480047FEE7FEE7FEE7FEE7FEE74B
:10024000FEE7FEE7FEE7FEE7FEE70000044805499B
:10025000034A054B7047000088ED00E08901000863
:10026000E0010020E0050020E00100207047704719
:1002700070477047704710B500F008F8006810BD6F
:1002800010B5044600F002F8046010BD0048704745
:100290007C010020004870477C0100207546FFF774
:1002A000F9FFAE4605006946534620F00700854633
:1002B00018B020B5FFF7CAFFBDE820404FF0000698
:1002C0004FF000074FF000084FF0000B21F007013E
:1002D000AC46ACE8C009ACE8C009ACE8C009ACE881
:1002E000C0098D46704710B50446AFF30080204624
:1002F000BDE81040FFF791BF0A48006800F02000F9
:1003000078B108480830006840F0200005490831FD
:10031000086000BF0448006880F40070024908606B
:1003200000BF7047006402401414024000BF0D4833
:10033000006880F480600B49086000BF0A480068CC
:1003400000F0200060B101200849087000BF064895
:100350000830006840F0200003490831086000BF01
:100360007047000014140240046402400A00002098
:100370000548006800F0010028B10348006820F03B
:1003800001000149086070471004014010B50A4897
:10039000006800F0010068B10748006820F0010023
:1003A0000549086001200549487001F04FF9012016
:1003B0000249887010BD0000100400406C0100204C
:1003C0000948006800F0010068B10748006820F0A3
:1003D00001000549086000BF0448006880F400700F
:1003E0000249086000BF7047100401401414024025
:1003F0001C49096801F0200109B31A494968C8B2CB
:100400001949098801F40041C9B91749098801F45B
:10041000804161B10A2803D00021134A118020E0F5
:100420001149098841F400410F4A118019E00D2853
:1004300006D10D49098841F480410B4A118010E032
:1004400009490988C1F30D01084A50540649098831
:10045000491C054A118011460988C72901DD002180
:10046000118070470010014008000020A400002007
:1004700003B401984100009850EAC12018BF04203D
:100480004A0D18BF40F0010040F2FF72B2EB515F1D
:1004900008BF40F00200012808BF052002B07047E5
:1004A00010B52F499FED2C1B2DED020B84B0059844
:1004B00020F000408842D8BF9DED040B2DDD294976
:1004C000884209D1049840B94FF00100FFF7D8FEE7
:1004D00000F066FD06B010BD05DB9DED040B00F0DD
:1004E00053FD06B010BD68469DED040B00F064F9A5
:1004F00010F0030004BF9DED021B9DED000B0CD01E
:1005000001280ED09DED021B9DED000B022817D097
:10051000012000F0A1FC06B010BD00F069FB06B0A0
:1005200010BD9DED021B9DED000B012000F094FC21
:1005300051EC100B01F046FD06B041EC100B10BD64
:1005400000F056FB51EC100B01F03CFD06B041EC05
:10055000100B10BD000000000000000000000000B3
:10056000FB21E93F0000F07F10B52DED040B86B0B4
:100570009DED060B10EE100A10EE901A8DED000B9B
:10058000002818BF0120084320F00040C0F17F6020
:1005900000F1E040C00F21D19DED080B10EE101AC4
:1005A00010EE900A8DED000B002918BF01210843C1
:1005B00020F00040C0F17F6000F1E040C00F0DD19D
:1005C00029490798B1EB400F04BF0698002842D094
:1005D0000998400004BF089800283CD09DED080B06
:1005E00053EC102B9DED060B51EC100B02F0C2F8F2
:1005F000CDE902019DED020B40F2FF7110EE900A71
:100600008DED000B31EA105021D00798039900F0CE
:10061000004001F00041884219D09DED080B8DED9E
:10062000040B9DED020B8DED000B10EE900A059969
:1006300061F31E0005909DED041B9DED020B51EC36
:10064000110B53EC102B02F079F9CDE902019DED6D
:10065000020B0AB010BD0120FFF712FE0AB0BDE880
:10066000104000F09DBC00000000E0FF0000000012
:1006700010B52F499FED2C1B2DED020B84B0059872
:1006800020F000408842DCBF00209DED040B32DDED
:100690002849884209D1049840B94FF00100FFF77A
:1006A000EFFD00F07DFC06B010BD05DB9DED040BF9
:1006B00000F06AFC06B010BD68469DED040B00F02A
:1006C0007BF810F0030011D0012818D09DED021B1B
:1006D0009DED000B02281AD000F08AFA51EC100BA5
:1006E00001F070FC06B041EC100B10BD9DED021B3B
:1006F0009DED000B012000F0AFFB06B010BD9DED9D
:10070000021B9DED000B00F073FA06B010BD012036
:1007100000F0A2FB51EC100B01F054FC06B041ECD0
:10072000100B10BD000000000000000000000000E1
:10073000FB21E93F0000F07F00B52DED048BB0EE0A
:10074000409AF0EE609A83B051EC190B02F002F976
:1007500041EC180B18EE100A18EE901A8DED008B74
:10076000002818BF0120084320F00040C0F17F603E
:1007700000F1E040C00F14D019EE101A19EE900AE3
:100780008DED009B002918BF0121084320F0004097
:10079000C0F17F6000F1E040C00F04BF0120FFF70F
:1007A0006FFDB0EE480A03B0F0EE680ABDEC048BB2
:1007B00000BD0000000000002DE9F14F04462DEDC2
:1007C000020B2DED088B8AB09FEDE70B80ED020B3D
:1007D000139EE74826F0004585420ADC9DED120B8A
:1007E000002084ED000B0AB0BDEC088B03B0BDE81F
:1007F000F08FE0489FEDE0AB9FEDE1BBA84247DD05
:10080000E14F9FEDE39B9FEDE48B9DED120B53ECCD
:100810001A2B51EC100B002E1CDD02F067F941EC95
:10082000100BBD4208D053EC1B2B51EC100B02F007
:100830005DF9C4E900010BE053EC192B51EC100BEE
:1008400002F054F953EC182B02F050F9C4E90001FE
:100850000120C8E701F0F4FB41EC100BBD4208D0C9
:1008600053EC1B2B51EC100B01F0EAFBC4E9000127
:100870000BE053EC192B51EC100B01F0E1FB53ECA6
:10088000182B01F0DDFBC4E900014FF0FF30AAE7AF
:10089000C348A84279DB9DED120B51EC100B00F020
:1008A00079FE41EC180B9FEDC00B53EC102B01F0BF
:1008B00069FE9FEDBF1B53EC112B01F0C1FB01F052
:1008C000CBFD074601F0F7FD41EC190B53EC1A2B59
:1008D00001F058FE53EC182B02F030F841EC180BE5
:1008E00053EC1B2B51EC190B01F04CFEDFF8C8A2A6
:1008F00041EC100B4FEA15580125FA4453EC102B2C
:1009000051EC180B02F0F2F8032DC4E900013DD0C0
:10091000C1F30A5005EB4511A8EB000011398142E3
:1009200034DA0AEB051BB0EE48AA9BED000BF0EEA3
:1009300068AA53EC102B51EC190B01F023FE41EC8B
:100940001B0B51EC1A0B53EC1B2B02F0CFF841ECB4
:10095000180B51EC1A0B53EC182B02F0C7F853ECA0
:100960001B2B02F0C3F89BED020B41EC1A0B53EC6E
:10097000102B51EC190B01F005FE53EC1A2B02F071
:10098000B5F841EC100B6D1CB8E70EE0002EA8BFC7
:100990003846BFF628AF94ED000B51EC100B01F078
:1009A00011FBC4E9000178421DE7C6F3130040F4CF
:1009B000801EC6F30A50A0F2F530471100F01F0563
:1009C000C5F12000DDF848B008900020069007909F
:1009D0000520EC467949002D07EB0002794408BF59
:1009E00051F8221009D051F8223001EB8201AB40BE
:1009F0004A68089922FA01F11943A1FB0E26A1FBCE
:100A00000B131A449A4234BF0123002303EB060858
:100A10000CEB8003D3E901A60E448E4234BF0121C2
:100A2000002192448A4411B1924502D903E09245D3
:100A300001D2012100E00021C3E901A641444CF8A4
:100A40002010011EA0F10100C4DC029800F100504A
:100A5000850F0298DDE903678000DDF8148001F05E
:100A60002AFD41EC1A0B304601F03CFD9FED541B72
:100A700053EC112B01F086FD41EC1B0B384601F0C5
:100A800031FD9FED511B53EC112B01F07BFD41EC2F
:100A9000180B404601F026FD9FED4D1B53EC112B2A
:100AA00001F070FD41EC190B51EC180B53EC192BB4
:100AB00001F0C6FA53EC1B2B01F0C2FA53EC1A2BCF
:100AC00001F0BEFACDE90801002008909DED080B69
:100AD00053EC1A2B51EC100B02F008F853EC1B2BC3
:100AE00002F004F853EC182B02F000F853EC192B29
:100AF00001F024FF9FED381B53EC112B01F042FD58
:100B00009FED370B41EC180B53EC102B9DED080BB0
:100B100051EC100B01F036FD53EC182B01F090FA5C
:100B20009FED310B41EC180B53EC102B9DED080B96
:100B300051EC100B01F026FD53EC182B01F080FA5C
:100B400041EC100B139810F0004F06D06D4251ECA1
:100B5000100B01F037FA41EC100B284684ED000B26
:100B600041E600000000000000000000000000005E
:100B7000FB21E93F7CD9024000004054FB21F93FB2
:100B80003163621A61B4D03DFB21F93F00000000DF
:100B90000000601A61B4D03D7370032E8A19A33B24
:100BA000FB2139410000000083C8C96D305FE43F7C
:100BB000000000000000E03FEA24000038240000AC
:100BC000000000000000103E000000000000103C8B
:100BD000000000000000103A182D4454FB21F93D9C
:100BE0003326A611460B113C00000054FB21F93DB1
:100BF00010B52DED040B2DED088B82B0B0EE419AAF
:100C0000F0EE619A0B9820F000449FED4BABB4F1ED
:100C1000795F11DA9DED0A0B51EC100B01F01CFC11
:100C2000002801BFB0EE4A0AF0EE6A0A02B0BDEC3D
:100C3000088B04BF04B010BD9DED0A0B53EC102BC4
:100C400051EC100B01F09EFC41EC180B3C480621C6
:100C5000B0EE480AF0EE680A784400F081F853ECF0
:100C6000182B51EC100B01F08DFC9DED0A0B41ECA3
:100C70001B0B53EC192B51EC100B01F083FC41ECD6
:100C8000190B53EC1B2B51EC180B01F07BFC53ECB4
:100C9000192B01F02BFF9FED2C0B41EC190B53ECA2
:100CA000102B51EC180B01F06DFC41EC100B284897
:100CB000844210DA53EC192B51EC100B01F016FFA3
:100CC00053EC1A2B01F03AFE41EC100B02B0BDECD4
:100CD000088B04B010BD1F48A042BCBF9FED1E1B77
:100CE0008DED001B06DBA4F50010019000200090A4
:100CF0009DED001B51EC100B53EC112B01F0F6FE97
:100D00009DED000B41EC180B53EC102B51EC1A0B22
:100D100001F0ECFE41EC1A0B53EC192B51EC180BC3
:100D200001F0E4FE53EC1A2B01F008FE41EC100B2D
:100D3000CCE7000000000000000000000000F03FD1
:100D40005C21000000000000000000000000E03F07
:100D50003333D33F0000E93F000000000000D23FE2
:100D600070B504462DED028B4D1E00EBC500B0EEB4
:100D7000408AF0EE608A90ED000B35F0060017D047
:100D800053EC182B51EC100B01F0FCFB41EC100B59
:100D90006D1E04EBC50090ED001B51EC100B53ECE5
:100DA000112B01F04DF941EC100B35F00600E7D1A5
:100DB000022D36D0042D1CD0062D1CBFBDEC028B9D
:100DC00070BD53EC182B51EC100B01F0DBFB94EDD4
:100DD0000A1B53EC112B01F033F953EC182B01F0E3
:100DE000D1FB94ED081B53EC112B01F029F941ECD8
:100DF000100B53EC182B51EC100B01F0C3FB94EDCE
:100E0000061B53EC112B01F01BF953EC182B01F0CE
:100E1000B9FB94ED040B53EC102B01F011F941ECEC
:100E2000100B53EC182B51EC100B01F0ABFB94EDB5
:100E3000021B53EC112B01F003F953EC182B01F0BA
:100E4000A1FB94ED001B53EC112B01F0F9F8BDEC64
:100E5000028B41EC100B70BD31B504462DED040B37
:100E60002DED0A8BB0EE41BAF0EE61BA0B989DED14
:100E70000A0B20F00040B0F1795F0DDA51EC100B55
:100E8000FFF7F6FA042808BF00F09AF89DED0A0B68
:100E9000BDEC0A8B05B030BD53EC102B51EC100BA0
:100EA00001F070FB41EC180B9DED0A0B53EC182B75
:100EB00051EC100B01F066FB41EC190B2C48B0EE25
:100EC000480AF0EE680A05217844FFF749FF9FEDD4
:100ED0002ACBB0EE40AAF0EE60AA9CB353EC1C2BD8
:100EE00051EC190B01F04EFB41EC1C0B53EC1A2B8F
:100EF00051EC190B01F046FB9FED210B41EC190B56
:100F000053EC102B51EC1B0B01F03CFB53EC192B59
:100F100001F0ECFD53EC182B01F034FB53EC1B2BD0
:100F200001F0E4FD53EC1C2B01F0E0FD9DED0A1BEC
:100F300053EC112B01F002FDBDEC0A8B05B041EC26
:100F4000100B30BDFFE753EC1A2B51EC180B01F0DE
:100F500019FB53EC1C2B01F073F853EC192B01F027
:100F600011FB9DED0A1B53EC112B01F069F8E3E72F
:100F7000E41F000000000000495555555555C5BFF8
:100F8000000000000000E03F10B553EC102B51ECC6
:100F9000100B01F055F841EC100B10BD00000000E3
:100FA0009FED050B10B553EC102B51EC100B01F01D
:100FB000FBF841EC100B10BD000000000000000029
:100FC0009FED050B10B553EC102B51EC100B01F0FD
:100FD000D9FA41EC100B10BD000000000000001019
:100FE000F0EE400A00EE100AB8EEC00A20EE800AC9
:100FF0007047000010B52DED068BF0EE408A18EE1C
:10100000900A01F05DFE41EC1A0B9FED181BB0EE4B
:101010004A0AF0EE6A0AFFF7A7FAB0EE409AF0EE3D
:10102000609A51EC190B00F0D9FF08EE100AB5EEEA
:10103000C08AF1EE10FA04DB18EE100A01F040FE4F
:101040000BE018EE100A01F03BFE41EC1A0B9FED8D
:10105000070B53EC102B00F0F3FF41EC190B00F0E1
:10106000BDFF00EE100ABDEC068B10BD182D4454D8
:10107000FB21194000BF70472848006840F001007C
:10108000264908600846006840F48000086023484C
:101090001430006840F48070204914310860204802
:1010A000006840F03F001E4908601E48006840F498
:1010B00080301D49C1F80403881548604FF4407022
:1010C00088600846806820F48060886008468068F0
:1010D00040F0010088600846806820F002008860C7
:1010E0000846806820F0706088600846806840F09C
:1010F000606088600846806840F0805088600846DC
:10110000C06A20F47000C8620846C06A40F400104B
:10111000C8624FF4026048637047000030380240F4
:101120000000024004230140002001407CB5044639
:101130000D4600BFB848006840F00400B64908609A
:1011400000BF00BF0846006840F00100086000BF13
:1011500000BF0846006840F00400086000BF00BF00
:101160000846006840F01000086000BF00BF084655
:10117000006840F00400086000BF00BF0846006837
:1011800040F01000086000BF00BF0846006840F053
:101190000100086000BF00BF9F481430006840F0A5
:1011A00002009D491431086000BF01200090002317
:1011B000022240210190994800F0ACFD01200090EE
:1011C0000023022280210190954800F0A3FD012018
:1011D00000900023022280210190904800F09AFDA7
:1011E0000120009000230222810301908D4800F02D
:1011F00091FD012000900023022201020190874806
:1012000000F088FD0120009000230222C10301901C
:10121000844800F07FFD012000900023022240213D
:1012200001907F4800F076FD022240217B4800F0CB
:1012300031FD042280217A4800F02CFD0222802119
:10124000764800F027FD03224FF48041754800F0F6
:1012500021FD0222D101714800F01CFD03224FF450
:101260000041704800F016FD042240216C4800F057
:1012700011FD6D480460001F056001205FE0022839
:1012800017DC694914390968421ED200121D062371
:1012900093401943644A143A116011460968421E8A
:1012A000D200D21C0123934019435F4A143A1160C3
:1012B00018E0042816DC5C4910390968C21ED20007
:1012C000121D062393401943574A103A11601146E4
:1012D0000968C21ED200D21C012393401943524A0E
:1012E000103A116050490C390968421E93000122DE
:1012F0009A4011434C4A0C3A116011460968421E4B
:101300009200521C012393401943474A0C3A116042
:1013100011460968421E9200921C01239340194312
:10132000414A0C3A116011460968421E9200D21CD3
:101330000123934019433C4A0C3A1160401C042895
:101340009DDB39482C38006820F0600036492C3984
:1013500008600846006840F0200008600846006801
:1013600040F0800008600846006840F400700860A3
:10137000081D006820F07000091D0860084600681C
:1013800040F02000086028481830006826491831CD
:1013900008600846006840F480400860084600681D
:1013A00008600846006840F4805008601E482038F5
:1013B000006840F001001C4920390860081D0068E1
:1013C00020F00100091D08602C200121002804DB09
:1013D0000A07130E154A135406E00A07160E144A9C
:1013E00000F00F031B1FD65400BF2C20002809DB80
:1013F00000F01F02012191404209920002F1E02217
:10140000C2F8001100BF08482C38006840F0010005
:1014100005492C3908607CBD303802400008024084
:1014200000000240000402402C04014000E400E0FF
:1014300018ED00E010B5124B1B6823F0FF03104CB1
:10144000236023461B680B43236023461B6843F439
:1014500000432360012A04D0022A06D0032A0CD1BB
:1014600007E0074B103B186008E0054B0C3B186089
:1014700004E0034B083B186000E000BF00BF10BD54
:10148000440401404FF0E021096941F004014FF0AC
:10149000E0221161054908601146096941F0010126
:1014A00011616FF070415161704700000000002031
:1014B00010B500203249086000BF3148006800F0D4
:1014C00001000028F9D12E480838006840F03D009E
:1014D0002B49083908602B482949083108602A48F7
:1014E000091D086003202649091D0860081F0068BF
:1014F000091F08600846006840F4807008600846CC
:10150000006840F4806008600846006840F40060AD
:1015100008600846006840F400500860084600680B
:1015200008600846006808600846006840F010003F
:10153000086038200121002804DB0A07130E134A33
:10154000135406E00A07140E114A00F00F031B1F84
:10155000D45400BF3820002809DB00F01F0201210D
:1015600091404209920002F1E022C2F8001100BF4E
:101570000348006840F001000149086010BD000008
:10158000106402404C2001400C00002000E400E008
:1015900018ED00E082B0CDE9000121F0004001909B
:1015A0009DED000B02B051EC100B70471CB500BF55
:1015B0001548006840F020001349086000BF00BFD4
:1015C0000846006840F02000086000BF012000903D
:1015D00000230246410201900C4800F09BFB0120D1
:1015E00000900023024681020190084800F092FB1F
:1015F00001225102054800F081FB012291020348BB
:1016000000F07CFB1CBD000030380240001402409A
:1016100000BF0723022208214FF4A87000F042FC0B
:10162000A820FFF72FFF4FF4E131542000F05AFCBF
:10163000FFF7BCFFFFF720FDFFF73AFFA72140F2BD
:10164000E730FFF773FD00BFFEE7000010B52DED9A
:10165000068B3E4890ED000A3D48D0ED000AB4EEFE
:10166000E00AF1EE10FA0AD2384890ED000A394843
:10167000D0ED000A30EE200A344880ED000A3448EC
:10168000006801F01DFB41EC1A0B9FED330B53EC8E
:10169000102B00F077FF41EC180B2C48006801F08C
:1016A0000FFB41EC190B53EC182B01F011F929D267
:1016B0002B4890ED000A2B48D0ED000AB4EEE00A6A
:1016C000F1EE10FA18D2264890ED000A10EE100A3A
:1016D00001F0F6FA41EC190B9FED230B53EC102BA4
:1016E00000F0AEFC41EC180B00F078FC00EE100AA4
:1016F0001B4880ED000A05E01A4890ED000A1848E2
:1017000080ED000A1A48D0ED000A154890ED001A45
:1017100070EE810AB0EE600AFFF76CFC144880EDB1
:10172000000A0720124991ED000AFFF759FCB0EEBC
:10173000408AB0EE481ADFED0F0A044890ED000A27
:1017400000F01AF8BDEC068B10BD000090000020E0
:101750009400002098000020000000000000E03FFE
:101760009C000020A0000020F168E388B5F8E43E6A
:10177000180000200000000010B52DED108B82B085
:10178000F0EE408AB0EE418A7A48D0ED000A78EE59
:10179000200AB0EE600AFFF72DFCB0EE408A18EE8A
:1017A000100A01F08DFA41EC1C0BB0EE4C0AF0EE81
:1017B0006C0AFEF75DFFB0EE40AAF0EE60AAB1EE53
:1017C000680A10EE100A01F07BFA41EC1B0B53EC97
:1017D0001A2B00F0D7FE41EC190B00F0FFFB664915
:1017E000086018EE100A01F06BFA41EC1C0BB0EE29
:1017F0004C0AF0EE6C0AFEF753FEB0EE40AAF0EE93
:1018000060AA18EE900A01F05BFA41EC1B0B53EC56
:101810001A2B00F0B7FE41EC190B00F0DFFB574923
:1018200008605748D0ED000AB0EE001A80EE810A39
:101830005148D0ED000A30EE200A524880ED000AEF
:101840004F4890ED000AF0EE000A80EE201A11EEEB
:10185000104A204601F034FA41EC1A0B4648006861
:1018600001F02EFA41EC1D0B4448006801F028FA03
:1018700041EC1F0B9FED440BFEF75EFF8DED000B5F
:1018800053EC1F2B9DED000B51EC100B00F07AFE7A
:1018900041EC1E0B53EC1D2B01F028F941EC1C0B05
:1018A0009FED3B0B53EC102B00F07EFC41EC1B0B2F
:1018B00053EC1A2B00F0C4FB41EC190B00F08EFB2B
:1018C000354908602E4890ED000AF0EE000A80EEDF
:1018D000201A11EE104A204601F0F2F941EC190BE2
:1018E0002648006801F0ECF941EC1D0B9FED260B3A
:1018F000FEF722FFB0EE40EAF0EE60EA53EC1D2B5B
:1019000051EC1E0B00F03EFECDE900011A4890EDAF
:10191000000AB1EE400A10EE100A01F0D1F941ECD4
:101920001C0B9DED000B53EC102B01F0DFF841EC8C
:101930001B0B9FED170B53EC102B00F035FC41EC0B
:101940001A0B53EC192B00F07BFB41EC1F0B00F042
:1019500045FB12490860084690ED001A0E48D0ED8C
:10196000000A084890ED000A00F01AF802B0BDEC39
:10197000108B10BD20000020240000202800002033
:10198000140000202C00002000000000000008408F
:101990000000000000000040300000203400002063
:1019A00010B52DED048BB0EE408AF0EE608AB0EEFB
:1019B000419A4F4890ED000AC8EE000AF5EEC00AC1
:1019C000F1EE10FA02D29FED4B0A13E0484890ED79
:1019D000000AC8EE000AB7EE000AF4EEC00AF1EE03
:1019E00010FA02DDB7EE000A04E04148D0ED000A2B
:1019F00088EE200A404880ED000A3D4890ED000A3C
:101A0000C8EE800AF5EEC00AF1EE10FA02D29FEDA0
:101A1000390A13E03648D0ED000A88EEA00AF7EE46
:101A2000000AB4EEE00AF1EE10FA02DDB7EE000AA9
:101A300004E02F48D0ED000A88EEA00A2F4880ED80
:101A4000000A2B4890ED000AC9EE000AF5EEC00A24
:101A5000F1EE10FA02D29FED270A13E0244890ED30
:101A6000000AC9EE000AB7EE000AF4EEC00AF1EE71
:101A700010FA02DDB7EE000A04E01D48D0ED000ABE
:101A800089EE200A1E4880ED000A1B4991ED000AEC
:101A9000DFED1C0A20EE200ABDEEC00A10EE101A7F
:101AA00088B201226421FFF7C5FC144991ED000AB8
:101AB000DFED140A20EE200ABDEEC00A10EE101A67
:101AC00088B202226421FFF7B5FC0D4991ED000AAE
:101AD000DFED0C0A20EE200ABDEEC00A10EE101A4F
:101AE00088B203226421FFF7A5FCBDEC048B10BD76
:101AF0001400002000000000380000203C000020FE
:101B00004000002000007A44F0B504460D46002154
:101B1000002000265C4F3F6847F48037DFF868C13B
:101B2000CCF8007000E0491C574F3F6807F40037BD
:101B30001FB947F6FF77B942F5D347F6FF77B942A9
:101B400001D101209EE0504F40373F6847F0805759
:101B5000DFF834C10CF1400CCCF800704B4F3F68FB
:101B600047F44047DFF824C1CCF80070464F3F1DD2
:101B70003F6805F03F0C47EA0C07DFF80CC10CF199
:101B8000040CCCF8007067463F6847EA8417CCF82D
:101B9000007067463F684FF0010CCCEB520C47EAEF
:101BA0000C47DFF8E4C00CF1040CCCF80070674679
:101BB0003F6847EA0367CCF8007067463F6847F420
:101BC0008007CCF800700CF104073F680CF1040C9E
:101BD000CCF8007067463F6847F4A057CCF8007017
:101BE00067463F6847F40047CCF80070264F3F68CF
:101BF00047F08077DFF890C0CCF80070002105E056
:101C0000491CB1F5001F01D3022005E01E4F3F68BB
:101C100007F00077002FF3D000BF1D4F3F6847F457
:101C20008077DFF86CC0CCF8007067463F6847F4F7
:101C30000077CCF8007067463F6847F48067CCF8BF
:101C4000007067463F6847F00507CCF800700E4FFC
:101C500008373F6847F00207DFF82CC00CF1080C8A
:101C6000CCF8007000210AE0074F08373F68C7F33F
:101C70008106491CB1F5001F01D3042001E0032EA9
:101C8000F2D100BFF0BD00000038024000700040FB
:101C9000003C0240F0B5034600200024002500BFB0
:101CA00029E0012606FA00F401EA0405A54221D143
:101CB000C70803F1200656F8276047074FEAD76C9C
:101CC0000F2707FA0CF7BE434FEAD00C03F12007A9
:101CD00047F82C60C70803F1200656F8276047072D
:101CE000FF0E02FA07F73E434FEAD00C03F120073C
:101CF00047F82C60401C1028D3D3F0BD02F001033C
:101D00001BB183690B43836103E0836943EA0143A9
:101D1000836170472DE9F0470C46DDE90867002133
:101D200000258C4600BF60E04FF0010808FA01F57D
:101D300004EA050CAC4557D1D0F800804FEA410ABF
:101D40004FF0030909FA0AF928EA0908C0F80080E7
:101D5000D0F800804FEA410902FA09F948EA090877
:101D6000C0F80080012A01D0022A27D1D0F80880CB
:101D70004FEA410A4FF0030909FA0AF928EA09086B
:101D8000C0F80880D0F808804FEA410906FA09F93E
:101D900048EA0908C0F80880D0F804904FF001081C
:101DA00008FA01F829EA0809C0F80490D0F804807C
:101DB00003FA01F948EA0908C0F80480D0F80C8059
:101DC0004FEA410A4FF0030909FA0AF928EA09081B
:101DD000C0F80C80D0F80C804FEA410907FA09F9E5
:101DE00048EA0908C0F80C80491C10299CD3BDE8BA
:101DF000F08700002DE9F0410746884614461D464D
:101E0000284600F033F8C5F1040007FA00F60F2069
:101E1000284100EA0800064306F00F06E21704EB2B
:101E2000D2625211920002F1E022D2F80021214642
:101E3000E31704EBD3635B11A4EB431C012303FA08
:101E40000CF31A432046E31704EBD3635B119B00AA
:101E500003F1E023C3F800210348005D40EA0610C7
:101E600001490855BDE8F08100E400E00146072380
:101E700023EA01021202054B18684FF6FF031840CF
:101E8000034B18431043014B186070470CED00E002
:101E90000000FA054A0A52020243014B1A607047D9
:101EA00008ED00E0F0B504460D4616461F46012039
:101EB0000B49086000200A4908310860091F0860C2
:101EC00007490C3108603B46324629462046FFF759
:101ED0001BFE00214FF00060FFF7DCFFF0BD0000AB
:101EE000003802407CB506460C4600BF3148006809
:101EF00040F001002F49086000BF00BF084600689D
:101F000040F00100086000BF00BF2A48143000689C
:101F100040F0100027491431086000BF01200090F4
:101F200000230222410201902348FFF7F3FE012023
:101F3000009000230222810201901F48FFF7EAFE71
:101F400007224FF400711C48FFF7A4FE07224FF44C
:101F500080611948FFF79EFE1848704300EB54005B
:101F6000B0FBF4F51648856000201549C8600846A6
:101F7000C068C8600846C068C8600846C06840F0CD
:101F80000800C8600846C06840F00400C860084601
:101F9000C06840F02000C8600223252203210846C3
:101FA000FFF728FF0648C06840F400500449C860A5
:101FB0007CBD0000303802400000024040420F006B
:101FC0000010014081F00041704780F000407047F0
:101FD00021F00041704720F00040704721F000429E
:101FE000A2F16052B2F5801F01F0004328BFD2F188
:101FF0007F6C0BD95FEA001C43EAC20242EB5070CF
:1020000018BF704728BF20F001007047B2F5801F4D
:10201000BCBF184670474FEA410C1CF5001F02D2A6
:10202000084600F0C3BE70B500F056FB0000008902
:10203000FFF7F6BF4FF00040A0F5800070470000AA
:1020400010B591EA030F48BF83F0004300F15685B5
:10205000841A71EB030C05D2121943EB0C03001B1D
:1020600061EB0C01DFF824E14FEA1154A4EB135C9F
:102070001EEA430F18BF9EEA445F73D023EA0E03A3
:10208000DCF1200E21EA045143F4801332D322FA0A
:102090000CFE10EB0E0023FA0CFE41EB0E01CCF10E
:1020A000200E03FA0EFE10EB0E0051F10001B1F507
:1020B000801FCCF1200E32D201EB045112FA0EF245
:1020C000BDE8104058BF7047401C38BF5FEA42026D
:1020D00018BF7047002814BF20F0010041F1000133
:1020E0004FEA410313F5001F38BF7047A1F1C0410B
:1020F00000F0E8BB012A43EB0302ACF1200CDCF159
:102100001F0E32BF4FF0000E23FA0CF310EB03004A
:1021100041EB0451B4EB115FD0D0A1EB045101F5B8
:10212000801149085FEA300001EB04510ED350F1F1
:10213000000038BF12FA0EFE08D1BDE81040C9E712
:10214000401C38BF5FEA4202CAD1C3E7BDE8104075
:102150004FEA410313F5001F38BF7047A1F1C0419A
:1021600000F0B0BB9EEA445F08D011EA5E0FBDE804
:10217000104004BF01F0004100207047BDE810404E
:1021800070B500F0A9FA00BF64FBBE3E0000E0FF9E
:10219000491058BFC1F140415B1058BFC3F14043E3
:1021A0008B42EFF3008070472DE9C04130B4DFF877
:1021B000A0C23CEA111418BF3CEA131400F0EC80F2
:1021C00081EA03051CEA111444EAD57418BF1CEA1D
:1021D000131500F0C780A4EB05044FF0004545EA55
:1021E000C12145EAC32341EA505143EA525304F165
:1021F0007F74994204F500344FEAC0204FEAC222AE
:1022000008BF904200F09C804FEA13650FF2401621
:10221000765D4FEA134506FB05F7C7F1807706FBAD
:1022200007F74FEAD737A7FB03687642C8F580382F
:10223000A7FB06CE38BFA8F1010807FB08E64FF060
:10224000000EA6FB028CE6FB03CEDCF1000CCEF107
:10225000004E38BFAEF1010EA6FB0C584FF0000740
:102260004FF00005E6FB0E87A1FB08C6A0FB07CEDA
:1022700016EB0E0645F10005E1FB076515F1E04E92
:102280007EBFA4F580345FEA46066D4116F18007F3
:1022900045F100054FEA17274FEA066647EA05674A
:1022A000A6F1DE46B6F1805F4FEA15251FD9384604
:1022B00024F0010C05EBC471BCF1FE6F01EB0C11B5
:1022C00002D8F0BCBDE8008124425CBF01F5801E4D
:1022D0009EEAC47F02D4F0BCBDE80081244238D419
:1022E000F0BCA1F1C041BDE8004100F0EBBA4FEAFB
:1022F000D22242EA43524FEAD323A7FB02864FEA97
:10230000D02040EA415007FB03661EEA0E0F4FEA59
:10231000D12105FB026658BFA6EB0056B6EB00566E
:102320004FEA520E4EEAC37E18EB0E0E56EB530EDA
:10233000BDD518EB02085E417F1C55F10005B6E7DC
:102340004FF480154FF000074FF000064FF00008E3
:10235000ADE7F0BC4FF0000001F1C04101F00041D9
:10236000BDE8008111EA0C1F0CEA131500D00CE047
:1023700013EA0C1F00F025804FF00000F0BC81EA4A
:10238000030101F00041BDE80081F0BCBDE800415F
:1023900081EA030100F096BAF0BCBDE8004170B5D7
:1023A00000F09AF9097EFC3E00F007B881EA0301CB
:1023B0004FF0000001F00041704781EA030100F096
:1023C00081BAF0BCBDE800414FF0000021497047E0
:1023D000FFFDFBF9F7F5F4F2F0EEEDEBE9E8E6E4EA
:1023E000E3E1E0DEDDDBDAD8D7D5D4D3D1D0CFCD71
:1023F000CCCBCAC8C7C6C5C4C2C1C0BFBEBDBCBBAA
:10240000BAB9B8B7B6B5B4B3B2B1B0AFAEADACABA4
:10241000AAA9A8A8A7A6A5A4A3A3A2A1A09F9F9E7E
:102420009D9C9C9B9A999998979796959594939330
:10243000929191908F8F8E8E8D8C8C8B8B8A8989C7
:10244000888887878685858484838382828181804A
:102450000000FF070000F87F4FEA41034FEA5353A3
:10246000A3F58063D3F11E03C8BFD3F1210C0CDDAB
:102470004FF0004242EAC12242EA505232FA03FCD3
:102480008CEAE17CACEBE1707047102BC4BF0020FC
:10249000704703F5787CBCF1FF3F04D06FF0004239
:1024A00082EA2100704770B500F016F94992248045
:1024B00000207047F2E710F0004248BF4042B0FAF7
:1024C00080F310FA03F10AD0C3F11D0303F5806312
:1024D0004FEA415002EB035202EBD12170474FF01B
:1024E00000007047B0FA80F310FA03F10AD0C3F18C
:1024F0001D0303F580634FEA41504FEA035202EB9C
:10250000D12170474FF000007047000051EA030CE2
:1025100017D41CF5801F58BFBCF5801F00F1068042
:10252000994218BF704708BF9042704707D711F50E
:10253000801F58BF13F5801F19D4994270478942F4
:1025400070471CF5801F08D5BCF5801FF7D58B425E
:1025500018BF704708BF824270474FF4001C1CEB45
:10256000410F38BF1CEB430F01D28B42704770B54F
:1025700000F0B2F8922449004FF000514FF0805320
:10258000FFF706BEDFF848C170B51CEA111E1EBF7A
:102590001CEA13159EEA0C0F95EA0C0F00F06F80F1
:1025A00081EA030423EA4C134EEAD47E21EA4C115B
:1025B00041F4801143F48013AE44A1FB024CA0FB14
:1025C0000365AEF17F7E361955EB0C05A1FB034C7C
:1025D0004CF10003A0FB021C16EB0C06654153F105
:1025E0000003094218BF46F0010613F4007F0BD127
:1025F0004FEA03314FEA0530340341EA155140EA0E
:1026000016506FF003020AE04FEAC3214FEAC520DB
:10261000F40241EA555140EA56506FF0020202EBD3
:102620002E4201EB025585EACE710AD05FEA440CD6
:1026300018BF24F0004450F1000041F1000120EAED
:10264000D47040F2FE7C624500D270BDA84214BF37
:102650004FF080444FF04044002E08BF0024BEF1EC
:10266000806FA8BFA1F1C041BDE8704080F22A810F
:102670004FF0000001F1C04101F0004170479EEAB7
:102680000C0F0CEA131518BF95EA0C0F06D04FF08B
:10269000000081EA030E0EF0004170BD00F01CF84E
:1026A0008900013E00F007B800F009B84FEA430C7A
:1026B0005FEA5C5C08D081EA030100F003B94FEAED
:1026C000410C5FEA5C5CF6D14FF0000001497047B5
:1026D0000000FF070000F87F0EF1020E2EF0030E3F
:1026E0005EF8046B364205D4012A43EB030515F569
:1026F000001F12D8012841EB010C1CF5001F0CD85B
:102700000ED14FEAD17C15F5001F0CEB4C0C0CF1EF
:10271000020C08BF4CEBD37C04E04FF0080C01E046
:102720004FEAD37C0CEB4C0526FA05F606F00706BB
:10273000B6F1040C06D20EEB860CBDE870404CF0EE
:10274000010C6047DFE80CF0090B02024FF000417A
:102750004FF00000A1F5002170BD19461046012878
:1027600051EB010418BFD4F5001484BF002001F020
:10277000004170BDDFF844C170B53CEA111418BFC8
:102780003CEA131500F08F8011F1004F1CEA13157D
:102790000CEA111468BF45F0050518BF11EA0C1FBB
:1027A00000F079802E4621EA4C1123EA4C1341F4C3
:1027B000801143F48013A5F58035AC423DDD801ACD
:1027C0009941A4F5803609D54042C1F1000134BFDA
:1027D000B1F10101B1F1000185F0010511F4F01F23
:1027E00008D011F4801FE8D1400041EB0101A4F5AD
:1027F0008034F6E721F00041B1FA81F6202E04BFC3
:10280000B0FA80FE0EF12006A6F10B06B6F1200EFE
:10281000A4EB06440CD2C6F1200E01FA06F120FA10
:102820000EF641EA0601CEF1200600FA06F003E0BA
:1028300000FA0EF14FF00000BFE750EA410E23D03E
:102840004FEA244EBEEB254F0FDB994208BF904262
:1028500004D00AD3520043EB0303B0E74FEA164615
:10286000B6EB144F08BF85F00105B4F5803401EBD9
:10287000041181EAC57100DB70BD01F1C0414FF068
:10288000000001F0004170BD4FEA45714FF00000BB
:1028900001F0004170BD1CEA131F09D04FF0000089
:1028A00001F0004170BDFFF717FF00BFEDFFFF3ED5
:1028B000BDE870404FF00000014970470000FF077D
:1028C0000000F87F0808A0F500114FEA31017047B9
:1028D00053EA010C17D41CF5801F58BFBCF5801FAC
:1028E00000F106808B4218BF704708BF82427047D4
:1028F00007D713F5801F58BF11F5801F19D48B42DD
:1029000070479B4270471CF5801F08D5BCF5801F9F
:10291000F7D5994218BF704708BF904270474FF4EF
:10292000001C1CEB430F38BF1CEB410F01D2994236
:1029300070470FB40CBC03BCFFF719BE91EA030F3C
:1029400010B581F000413FF583AB83F0004300F008
:10295000D5B800002DE9F04101F5801CBCF5001F41
:10296000C0F2A9804FEA115C21EA0C510CF1FD0C78
:1029700041F480115FEA5C0C0CF5C07C01D340008F
:10298000494130A4890241EA905187028E0E0A0C17
:10299000A45D04FB04F602FB06F6C6F14046A4FB68
:1029A0000662F60D46EA422606FB06F4A4FB012366
:1029B0005242C3F1404338BF5B1EA6FB02420024D3
:1029C000E6FB0324D20B42EA4446A6FB0623A1FB06
:1029D00002E2A3FB07E4E3FB61426442C2F1404E22
:1029E00038BFAEF1010EA6FB04234FF00002E6FB58
:1029F0000E32A2FB03463400E2FB6264A1FB06E652
:102A0000A4FB07E8E4FB61687642C8F1405838BF90
:102A1000A8F10108A2FB06E4A3FB08E5E2FB685469
:102A2000A1FB05E6A7FB04E8E1FB648618F120059D
:102A300056F10006A809A8F11B08B10908F03F08E3
:102A4000B8F10A0F40EA86601CD901EB0C51BDE8D1
:102A5000F08100BFFCF5EEE8E2DDD8D3CFCBC7C3F1
:102A6000C0BDB9B6B4B1AEACA9A7A5A3A19F9D9BAB
:102A70009A9896959392908F8D8C8B89888786856E
:102A800084838281A0FB006800FB01F208EB42080E
:102A9000B8EB872807D5341858EB0104D5D5401C6E
:102AA00051F10001D1E7341A78EB0104CDD4401E76
:102AB00071F10001C9E75FEA4C0C5FEA9C5C0DD143
:102AC00005D34FF0000001F00041BDE8F081BDE802
:102AD000F04170B5FFF700FE6DDBFFBEBDE8F041D1
:102AE0004FF00000004970470000F87F10B591EAF0
:102AF000030F48BF83F000433FF5AAAA841A71EB85
:102B0000030C07D212198CF0004C43EB0C03001B92
:102B100061EB0C01DFF8A4E14FEA1154A4EB135C64
:102B20001EEA430F18BF9EEA445F00F0B08023EA1C
:102B30006E03524221EA0451C3EB6E0338BF5B1EA1
:102B4000DCF1200E25D322FA0CFE10EB0E0043FA26
:102B50000CFE41EB0E01CCF1200E03FA0EFE10EB41
:102B60000E0051F10001CCF1200E29D412FA0EF220
:102B700001EB0451BDE8104058BF7047401C1CBF1A
:102B8000B2F1004F704700280CBF491C20F0010033
:102B9000704712EB020E43EB030218BF4FF0010E19
:102BA0004EEA4202ACF1200CDCF11E0E54D943FA7D
:102BB0000CFE10EB0E0051F1FF31CCF11E0ED5D5FD
:102BC0000EF1010E12FA0EFE404141EB010101EB44
:102BD000445C5FEA5C5C10D910EBDE7001EB0451E1
:102BE00038BFBEF1004FBDE8104018BF7047002845
:102BF0000CBF491C20F00100704730D24FEAD42CA2
:102C000011F5001124F400641BD0B1FA81F20B3AE3
:102C1000A41AA41ED2F12003914030FA03F3194301
:102C2000904001EBCC71002C01EB0451BDE8104049
:102C3000A8BF704701F1C0414FF0000001F0004112
:102C40007047B0FA80F310FA03F100D110BDE41A16
:102C5000173C4805C90AE4E701EB045110BD4910CF
:102C600001EB0451BDE810404FEA300002E04FF0A4
:102C7000000170474A0008BF0042F8D0B2F5001FBB
:102C800028BF704701F000414FF0000070479EEAF6
:102C9000445F07D011EA5E0FBDE8104004BF002179
:102CA00000207047BDE8104070B5FFF715FD00BF6C
:102CB00040DFF63E83F00041104670470000E0FF21
:102CC00043004FEAD30C4FEA3C0C43401FBF400780
:102CD0000CF1605113F0FE4F70471CF0006F03D1F0
:102CE00000200CF0004170470CF0004343EA5070A4
:102CF00010B540EACC0000F00EF800BF00000092D2
:102D00004FEA0001FFF7DEBD4FF000414FF0000039
:102D1000A1F5002170470EF1020E2EF0030E5EF8B1
:102D2000044B244204D44FEA4102B2F17F4F11D840
:102D30004FEA4003B3F17F4F0CD80ED14FEAD07C5D
:102D4000B2F17F4F0CEB4C0C0CF1020C08BF4CEBBA
:102D5000D17C04E04FF0080C01E04FEAD17C0CEB91
:102D60004C0324FA03F404F00704B4F1040C06D273
:102D70000EEB840CBDE810404CF0010C6047DFE81E
:102D80000CF0070802024FF00040A0F5800010BDD3
:102D90000846420018BFD2F1807288BF00F00040A0
:102DA00010BD4FF04070E1EE100A7047FF2141EA7C
:102DB000D050C005704700004C5555555555A53F9E
:102DC0007751C1166CC156BF9015CB19A001FA3EC0
:102DD000AD529C804F7E92BEC4B1B4BD9EEE213EEA
:102DE000D43888BEE9FAA8BD00004054FB21F93F61
:102DF0003163621A61B4D03D0000601A61B4D03D05
:102E00007370032E8A19A33B0000002E8A19A33B7E
:102E1000C14920259A837B39000000000000000092
:102E20006E83F9A22915444ED15727FCC0DD34F535
:102E3000999562DB4190433CAB6351FE61C5BBDEBB
:102E40003A6E24B7E0D24D42EA2E49061C92D109CF
:102E50001CEB1DFE3EA729B1F53582E88444BB2E4C
:102E600026709CE9417E5FB439D69139F439538399
:102E70008B5F849C3B28F9BDFF97F81F0F9805DEF8
:102E80008B112FEF1F6D0A5ACF7E366DB709CB27F6
:102E9000663F464F2DEA5F9EC7BA27757BF1E5EB8B
:102EA000F739073DEA92528AB15FFB6B085D8D1FCF
:102EB000A6F810111111813FD561C119A0012ABFD7
:102EC0007DFEB157E31DC73EEB9C2B8AE6E55ABE5B
:102ED0007CD5CF5A3AD9E53DF82E000800000020F5
:102EE000A4000000C40100089C2F0008A4000020DA
:102EF0003C050000E00100080000000000000000A8
:102F00000000000000000000000000000000404140
:102F100000000000000000000000000000000000B1
:102F200000000000000000000000000000000000A1
:102F30000000000000000000000000000000000091
:102F40000000000000000000000000000000000081
:102F50000000000000000000000000000C01000064
:102F6000F40200000000000000000000000000006B
:102F70000000000000000000000000000000000051
:102F80000000000000000000000000000000804081
:0C2F90006F12833A6F12033A17B7513AE0
:040000050800018965
:00000001FF
