:020000040800F2
:10000000E0080020410200084F02000851020008E9
:1000100053020008550200085702000800000000C3
:10002000000000000000000000000000590200086D
:100030005B020008000000005D0200085F0200088B
:100040006102000861020008610200086102000804
:1000500061020008610200086102000861020008F4
:1000600061020008610200086102000861020008E4
:1000700061020008610200086102000861020008D4
:1000800061020008610200086102000861020008C4
:1000900061020008610200086102000861020008B4
:1000A00061020008610200086102000861020008A4
:1000B000610200082D1500086102000861020008B5
:1000C0006102000861020008610200086102000884
:1000D0006102000899150008610200086102000829
:1000E0006102000861020008610200086102000864
:1000F0006115000861020008610200086102000841
:100100006102000861020008610200086102000843
:100110006102000861020008610200086102000833
:10012000C5120008610200086102000861020008AF
:100130006102000861020008610200086102000813
:100140006102000861020008610200086102000803
:1001500061020008610200086102000861020008F3
:1001600061020008610200086102000861020008E3
:10017000610200086102000861020008000000003E
:10018000610200086102000800F002F800F049F87E
:100190000AA090E8000C82448344AAF10107DA45E2
:1001A00001D100F03EF8AFF2090EBAE80F0013F0EB
:1001B000010F18BFFB1A43F0010318473844000031
:1001C00058440000103A24BF78C878C1FAD85207C2
:1001D00024BF30C830C144BF04680C6070470000C1
:1001E0000023002400250026103A28BF78C1FBD840
:1001F000520728BF30C148BF0B607047662904F022
:100200001A81002070471FB504F00BF900F0ACFA1A
:1002100004000020002103F0FFF9E0601FBD10B5CD
:1002200010BD00F0C1FB1146FFF7EDFF02F05EFCD0
:1002300000F0DFFB03B4FFF7F2FF03BC01F0E0FFC7
:100240000B48016841F4700101600A480047FEE76D
:10025000FEE7FEE7FEE7FEE7FEE7FEE7FEE7FEE776
:10026000FEE7000004480549034A054B70470000BB
:1002700088ED00E089010008E0040020E00800208B
:10028000E0040020704700000FB4044910B503AA31
:10029000029800F057FA10BC5DF814FB040000202F
:1002A0002DE9F0410E460446002020622046E16818
:1002B000884730B3252805D0D4E901219047206A2A
:1002C000401CF2E7E168204600278847050018D067
:1002D000A5F14100192802D820354FF400673246B5
:1002E000294620462760FFF789FF40B1012804D046
:1002F000F61D26F007060836D8E7361DD6E728464D
:10030000DAE7206ABDE8F0817047704770477047B0
:1003100010B500F02DFA006810BD10B5044600F0CD
:1003200027FA046010BD70472DE9FF4F0C461E46AA
:100330004FF0FF378BB0D2E90001DDF860800A9002
:100340008A46C1F30A5505B93D46002108464FF0DB
:100350000000BAF1000F00F4400005DA00EB800065
:100360004FF4400101EA50004FEA9059B9F1010FF2
:1003700000DDB9460A9850EA4A000ED044F6105003
:10038000A5F2FF3545432F14B8F1000F1ED075427A
:10039000291E1EDDC9F100021CE0B8F1010F4FF06B
:1003A000000001D0302103E0F24305E02154401C5D
:1003B000B042FBDB30460022002121540B99C1F8EA
:1003C0000880C1E900200FB0BDE8F08FBD1B6D1C97
:1003D000DEE74A4600DA694206A800F06BFA06AB8F
:1003E00093E8070003AB83E8070050460A9900F042
:1003F00049FB8DE80700A0F500501F3800900398D6
:10040000002D0ADD42F21F014A460844002303A9D9
:100410000390684600F0B2FD09E0A0F500504A469E
:100420001F38002303A90390684600F0BCFD8DE847
:1004300007000004000C03D04FF0FF30410800E03B
:100440001046B8F1000F03D00022009215461EE0BE
:10045000751E05D400F090F9303262556D1EF9D545
:10046000B3460122084302D000227F1C04E020781A
:10047000302801D100227F1E002A099784D01DE078
:10048000112D07DA00F078F9303262556D1C50EA10
:100490000102F5D1084302D00098C8B10EE0002156
:1004A000681E05E0235C625C63542254401E491CB4
:1004B0008142F7DBAB46A81B401E0990002004F8E0
:1004C0000B000B98099AC0F80880C0E9002B7AE766
:1004D00011264FF0000857E72DE9F04F88460446F3
:1004E000D21D22F0070191B0D1E90001CDE90A0146
:1004F00001F092F802460B98C00F01D02D2007E0C2
:100500002068810701D52B2002E0202101EAC000EC
:10051000032A099001D0072A05DB034641462046FD
:1005200000F088F90BE12078800601D5E06900E051
:100530000620B8F1650F814606D0B8F1660F18D0D5
:10054000B8F1670F70D131E00020B9F1110F0090C0
:1005500001DB112301E009F101030AAA01A90CA89A
:10056000FFF7E2FEDDE90C70002609F10105834684
:1005700047E001204B4600904FF000470AAA01A92E
:100580000CA8FFF7D1FEDDE90DB00C995D46002601
:1005900010B909F101000D18B9EB050003D4C0F141
:1005A000FF3609F10105A5EB09002BE0B9F1010FB8
:1005B00001DA4FF001090020B9F1110F009048460F
:1005C00001DD112300E003460AAA01A90CA8FFF7E8
:1005D000ABFEDDE90C704D4600268346207800070F
:1005E0000AD4AB4500DA5D4601A8012D04DD4119AE
:1005F00011F8011C302907D04F4502DA17F1040F1A
:1006000004DA012082460FE06D1EEEE7002F02DCC7
:10061000ED1B3E4403E0781CA84200DD7D1CB81BA6
:1006200000F1010A4FF000472078000703D4AA45E3
:1006300001DB4FF0FF3A0021B7F1004F0DF1430805
:100640008DF8431024D002202B23002F01DA7F42A3
:100650002D230A21021EA0F1010000DC5FB197FBEF
:10066000F1FC97FBF1F201FB1C7C17460CF1300CFE
:1006700008F801CDEEE7A8F1010003702188090513
:1006800001D5452100E06521A0F1010800F8011C19
:1006900009980FA9A1EB0807FF1D00B1012041191E
:1006A00001EBEA70A1693844081A401EA061207865
:1006B000C00602D42046AFF30080099828B1D4E9DF
:1006C00001219047206A401C20622078C00622D574
:1006D0002046AFF300801EE0002E04DBB34502DDB0
:1006E00001A8805D00E03020D4E901219047206A14
:1006F000401C2062761CAAF101005FEA000A0AD1C0
:1007000000F032F8C0680168405CD4E901219047EC
:10071000206A401C2062281EA5F10105DCDC07E0F0
:10072000D4E9012118F8010B9047206A401C20628F
:10073000381EA7F10107F3DC2046AFF30080032049
:1007400011B041E6074B70B50D467B4400F05FF8F1
:100750000446284600F020F910B14FF0FF3070BD7C
:10076000204670BD8B21000000487047A004002087
:10077000004870478004002030B5B0F10A024FEA0B
:10078000900E71F100034EEA817EB0EB0E0061EB3A
:1007900091014FEA101E4EEA017E10EB0E0041EB74
:1007A00011114FEA102E4EEA016E10EB0E0041EBD4
:1007B00011214FEA104E4EEA014E10EB0E0041EBB4
:1007C0001141401841F100014FEAD00040EA417068
:1007D0004FEAD10110EB80054FEA810444EA90749E
:1007E00044EB01046D1944EB0404521BA3414FF088
:1007F000000348BF0A3200D530BD401C41F1000162
:1008000030BD000001694A1C02610878704700B5DC
:100810008FB0CDE901310021059105497944CDE939
:10082000031011466846FFF73BFD0FB000BD000006
:10083000E5FFFFFF2DE9F0411F460446032601684E
:10084000072A01F4006004DB08B116A505E016A52F
:1008500003E008B115A500E015A521F01000206007
:10086000A069C01EA0610FB1401EA0612046AFF379
:1008700000804FB1D4E9012138469047206A401CDE
:100880002062C01C206206E0206AFAE7D4E9012158
:1008900015F8010B9047761EF8D22046AFF3008082
:1008A000BDE8F0814E414E006E616E00494E46003B
:1008B000696E66002DE9F047814616468AB03548D4
:1008C00078440DC88DE80D0032487844801C03AC94
:1008D0000DC884E80D0041F69B300844372190FB99
:1008E000F1F290FBF1F5A5F1800501FB12041B3C30
:1008F00002D56442012000E00020DFF898A0804685
:100900000027FA44AAF1BE0A0EE0E0070AD03246F8
:10091000684607EB470101230AEB810100F043FB26
:100920008DE8070064107F1C002CEED1194F7F4426
:10093000AE3F19E0E80715D007EB04100DF1180AD7
:1009400090E80E008AE80E00C068F04201D19819C4
:1009500008903246012306A903A800F024FB03AB4C
:1009600083E807006D10641C002DE3D14FF00103F4
:1009700032466946B8F1000F03A802D000F0FEFA33
:1009800001E000F010FBC9E90001C9F808200AB035
:10099000BDE8F087183D0000007B00F08000704744
:1009A00000487047800400207546FFF7F9FFAE4607
:1009B00005006946534620F00700854618B020B56B
:1009C000FFF750FCBDE820404FF000064FF0000755
:1009D0004FF000084FF0000B21F00701AC46ACE8E7
:1009E000C009ACE8C009ACE8C009ACE8C0098D4654
:1009F000704710B50446AFF300802046BDE81040B4
:100A0000FFF718BC4FF0013C50F8042B51F8043BA1
:100A10009A4221D1A2EB0C03934313EACC1317D1D2
:100A200050F8042B51F8043B9A4215D1A2EB0C0369
:100A3000934313EACC130BD150F8042B51F8043B29
:100A40009A4209D1A2EB0C03934313EACC13DBD0F7
:100A50004FF00000704700BFD01A01BAB1FA81F11F
:100A600001F0180122FA01F0CB40C1F12001DBB204
:100A7000C0B2C01A2CFA01F3D11A914311EAC31182
:100A8000E6D170475FEA400C08BF91F0000F4FEAD3
:100A90008C234FEAC12243EA51514FEA1C5018BF40
:100AA00000F5F0404FEA300018BF41F000415FEA26
:100AB0006C5C00F02980BCF1FF3F08BF40F0804033
:100AC0007047130C06BF12044FF0100C4FF0000CCF
:100AD000130E04BF12020CF1080C130F04BF120115
:100AE0000CF1040C930F04BF92000CF1020CD30F15
:100AF00004BF52000CF1010C11464FF00002A0F1AE
:100B00001F00A0EB0C00704711F0004F08BF7047AA
:100B100031F000413FF4D5AF0B0C06BF09044FF094
:100B2000100C4FF0000C0B0E04BF09020CF1080C66
:100B30000B0F04BF09010CF1040C8B0F04BF8900DB
:100B40000CF1020CCB0F04BF49000CF1010CCCF1ED
:100B50002003A0EB0C0022FA03F302FA0CF241EAA4
:100B6000030100F10100704720F07F4C80EA030090
:100B700023F07F47ACEB070303F57C5300F0004004
:100B800003F1FF032DE980494FEA154B09B44FEA01
:100B9000144325EA0B4E24EA03480FF2042606EB21
:100BA000132749083E785FEA320203FB0667C7F560
:100BB000000707FB06F64FEA54374FEAD64606F120
:100BC000020607FB066CCCF1005C4FEA1C472CEADE
:100BD000074C07FB06F40CFB06F504EB15464FEA41
:100BE000961634BF00204FF000404FEAD13706FB85
:100BF00007FC4FEA1C4C0CFB0BF7D21B03FB0CF75A
:100C000061EB07010CFB0EF7B0EB074072EB1742EC
:100C10000CFB08F734BFA2EB0742B2EB074261EBD3
:100C200017414FEA0C444FEA910706FB07FC4FEAD5
:100C30001C4C0CFB0BF7B0EBC74072EB573203FBBD
:100C40000CF734BFA2EBC742B2EBC74261EB57319E
:100C50000CFB0EF7B0EBC70072EB57720CFB08F7FA
:100C600034BFA2EBC702B2EBC70261EB5771039F1F
:100C70004FEA816141EA921104EBCC044FEAD1378B
:100C80004FEA826206FB07FC42EA90124FEA80605C
:100C90004FEA1C4C0CFB0BF7D21B03FB0CF761EB70
:100CA00007010CFB0EF7B0EB074072EB17420CFB91
:100CB00008F734BFA2EB0742B2EB074261EB1741E2
:100CC0004FEA8C554FEA910704EB9C2406FB07FC86
:100CD0004FEA1C4C0CFB0BF7B0EBC74072EB5732E2
:100CE00003FB0CF734BFA2EBC742B2EBC74261EB88
:100CF00057310CFB0EF7B0EBC70072EB57720CFBD1
:100D000008F734BFA2EBC702B2EBC70261EB577121
:100D100015EB4C254FEA816141EA92114FEA82625C
:100D20004FEAD13742EA901206FB07FC44F1000477
:100D30004FEA80604FEA1C4C0CFB0BF7D21B03FB05
:100D40000CF761EB07010CFB0EF7B0EB074072EB01
:100D500017420CFB08F734BFA2EB0742B2EB074285
:100D600061EB174115EB1C154FEA813141EA9241C5
:100D70004FEA823242EA90424FEA80304FEA0C76E4
:100D800044F1000448EA03434EEA0B484FF0000EDA
:100D9000B2EB080C71EB030724BF624639464EEBF9
:100DA0000E0E4FF0000B0018524149414BEB0B0B5C
:100DB000B2EB080C71EB03077BF1000B24BF62461A
:100DC00039464EEB0E0E4FF0000B001852414941D0
:100DD0004BEB0B0BB2EB080C71EB03077BF1000B39
:100DE00024BF624639464EEB0E0E51EA020718BF89
:100DF00046F0010616EB0E7655F1000254F10001A3
:100E000003D5BDE88901BDE80088BDE88901BDE8DA
:100E10000048B619524141EB0101A3F101037047AB
:100E200080807F7E7D7C7B7A797877767675747327
:100E3000727171706F6E6E6D6C6C6B6A6A696868E6
:100E4000676666656464636362616160605F5F5E7C
:100E50005E5D5D5C5C5B5B5A5A59595858575756F2
:100E60005655555554545353525252515150505057
:100E70004F4F4F4E4E4D4D4D4C4C4C4B4B4B4A4AA9
:100E80004A494949484848474747474646464545ED
:100E90004544444444434343434242424241414126
:100EA000002B9C4630D477002BD01CB54FEA370777
:100EB00003B44FF010004FF01001BAF1000F06D04C
:100EC000BCF1000FDCBF40F0080040F008014FF01B
:100ED00000000FBCBDE810400BF1010BBBF1010F8E
:100EE00008BF5FEA170722BF12F1010211F10101E9
:100EF0004FF0004143F1000300F0004043EA0000DE
:100F00007047F9D35708D0E746EA064613F1400F79
:100F10004FEA16461FDD13F1200FDFBF16430A46C6
:100F2000002120335B42BED0C3F1200746EA0646CB
:100F300002FA07F74FEA164646EA0706C3F120070A
:100F400022FA03F201FA07F721FA03F14FF0000346
:100F500042EA0702A7E746EA020646EA06464FEAE1
:100F6000164646EA0106BCBF46EA0646360C4FF076
:100F700000034FF000024FF0000194E72DE9804C90
:100F80009A46934670B491E8380007C831EA400C9D
:100F900048BF34EA430C03D5FFF7E6FDFFF780FFB7
:100FA000F0BCBDE8008C2DE9804C9A46934670B4A5
:100FB00091E8380007C810F0804F08BF13F0804F49
:100FC00003D100F005F8FFF76BFFF0BCBDE8008C23
:100FD00020F07F4780EA030023F07F4C07EB0C03EF
:100FE000A3F57C5300F00040A3F1FE0392F0000F44
:100FF00000F0B38095F0000F00F077802DE90149F3
:101000004FEA11404FEA144621EA004800FB06FC73
:1010100024EA064708FB06F607FB08F800FB07F77B
:1010200018EB06484CEB164C4FEA124B18EB0748EE
:101030004FEA15464CEB174022EA0B4E0BFB06FC21
:1010400025EA06470EFB06F607FB0EFE0BFB07F72D
:101050001EEB064E4CEB164C4FF000061EEB074EF7
:101060004CEB174B18EB0B0840F1000018EB0E0B84
:1010700058EB000840F100008F1A4FF000013CBF10
:10108000C943661B14BFB5EB040C00213CBFC94328
:10109000F61B4FEA17444EEA8E0E27EA04454FEA44
:1010A0001C4704FB07622CEA074C05FB07F70CFB07
:1010B00005F604FB0CFC16EB074642EB174216EB59
:1010C0000C4642EB1C421BEB060658EB0202414168
:1010D00046EA9E0601D5BDE80189B619524141EBA9
:1010E0000101A3F10103BDE801894FEA14454FEA6C
:1010F000114724EA054621EA074C05FB07F406FBE5
:1011000007F70CFB06F105FB0CFC11EB074144EB68
:1011100017444FEA124711EB0C4144EB1C4422EAFE
:10112000074C05FB07F206FB07F70CFB06F605FB71
:101130000CFC16EB074642EB174216EB0C4642EB53
:101140001C456A1854F1000148BF7047B619524156
:1011500041EB0101A3F10103704795F0000F37D077
:101160004FEA11424FEA144721EA024624EA074CAB
:1011700002FB07F106FB07F70CFB06F402FB0CFC75
:1011800014EB074441EB17414FEA154714EB0C44AD
:1011900041EB1C4125EA074C02FB07F506FB07F76C
:1011A0000CFB06F602FB0CFC16EB074645EB17455D
:1011B00016EB0C4645EB1C42121951F1000148BFD9
:1011C0007047B619524141EB0101A3F10103704789
:1011D0004FEA14454FEA114724EA054621EA074C35
:1011E00005FB07F106FB07F70CFB06F24FF00006C4
:1011F00005FB0CFC12EB074241EB174112EB0C42D2
:1012000051EB1C4148BF7047921841EB0101A3F11B
:10121000010370472248006840F020002049086020
:101220001F481030006840F480001D4910310860EC
:101230001C48006840F00A001A490860081D006850
:1012400040F00300091D0860081D006840F00F0011
:10125000091D0860081D006840F00500091D0860B0
:1012600010482030006840F044000E4920310860EA
:101270000D48006820F001000B4908602A20091D74
:101280000860D22008491C3108602B20091D086025
:101290000548006840F001000349086070470000FD
:1012A0003038024000140240005800400020044939
:1012B000887008718871087288728873704700009E
:1012C000640100200A48006800F0200078B1084856
:1012D0000830006840F0200005490831086000BF70
:1012E0000448006880F400700249086000BF70473D
:1012F00000640240141402403248407801280FD1A3
:10130000002030494870012008710846C078401C10
:10131000C0B2C8700A2803DB0020C8700120087121
:101320002848007901280BD126484079401CC0B2DA
:10133000244948710A2803DB002048710120887184
:101340002048807901280BD11E48C079401CC0B2CA
:101350001C49C871052803DB0020C87101200872F0
:101360001848007A01280BD11648407A401CC0B2B8
:1013700014494872022803DB002048720120887259
:101380001048807A01280BD10E48C07A401CC0B2A8
:101390000C49C8720A2803DB0020C87201200873B8
:1013A0000848007B01280BD10648407B401CC0B296
:1013B00004494873062803DB002048730120887322
:1013C00070470000640100204148006840F00600BA
:1013D0003F4908603F48006820F040603D49086090
:1013E0000846006840F0006008600846406A20F443
:1013F000700138484162406A40F4A00135484162BA
:1014000034480830006840F04060324908310860D4
:101410003148006820F0C0002F4908600846006885
:1014200040F0800008602C482030006820F47040B4
:101430002949203108600846006840F4A04008604F
:1014400025480830006840F0C00023490831086092
:101450002148006820F030001F49086008460068F5
:1014600040F0200008601C482030006820F47060C4
:101470001949203108600846006840F4A0600860FF
:1014800015480830006840F0300013490831086002
:101490001048006820F040700E4908600846006857
:1014A00040F080700860081D006820F48050091D1D
:1014B0000860081D006840F04070091D086005487C
:1014C0001430006840F480500249143108607047BD
:1014D0003038024000040240000802401148006811
:1014E00040F480400F49086000200F49086008461A
:1014F000006820F0030008600846006840F004001F
:1015000008600846006840F44070086008460068BB
:1015100040F0100008600846006840F04000086095
:1015200070470000403802400038004010B50A48BB
:10153000006800F0010068B10748006820F0010071
:101540000549086001200549487001F035FB01207C
:101550000249887010BD00001004004064010020A2
:1015600010B50B48006800F0010078B10848006829
:1015700020F001000649086000BF0648006880F4BA
:1015800000700449086000BF01F040F910BD000080
:1015900010040140141402401C49096801F02001A4
:1015A00009B31A494968C8B21949098801F40041C8
:1015B000C9B91749098801F4804161B10A2803D0EB
:1015C0000021134A118020E01149098841F40041AB
:1015D0000F4A118019E00D2806D10D49098841F400
:1015E00080410B4A118010E009490988C1F30D01BF
:1015F000084A505406490988491C054A1180114679
:101600000988C72901DD00211180704700100140C1
:10161000080000209C00002003B4019841000098BD
:1016200050EAC12018BF04204A0D18BF40F0010045
:1016300040F2FF72B2EB515F08BF40F00200012898
:1016400008BF052002B0704710B52F499FED2C1B35
:101650002DED020B84B0059820F000408842D8BFE1
:101660009DED040B2DDD2949884209D1049840B92C
:101670004FF00100FEF751FE00F066FD06B010BD10
:1016800005DB9DED040B00F053FD06B010BD684670
:101690009DED040B00F064F910F0030004BF9DED14
:1016A000021B9DED000B0CD001280ED09DED021BFE
:1016B0009DED000B022817D0012000F0A1FC06B020
:1016C00010BD00F069FB06B010BD9DED021B9DED45
:1016D000000B012000F094FC51EC100B01F0B2FF64
:1016E00006B041EC100B10BD00F056FB51EC100B96
:1016F00001F0A8FF06B041EC100B10BD0000000087
:101700000000000000000000FB21E93F0000F07F26
:1017100010B52DED040B86B09DED060B10EE100AF2
:1017200010EE901A8DED000B002818BF0120084321
:1017300020F00040C0F17F6000F1E040C00F21D1F7
:101740009DED080B10EE101A10EE900A8DED000BB7
:10175000002918BF0121084320F00040C0F17F603C
:1017600000F1E040C00F0DD129490798B1EB400FBF
:1017700004BF0698002842D00998400004BF08988A
:1017800000283CD09DED080B53EC102B9DED060B73
:1017900051EC100B02F02EFBCDE902019DED020B86
:1017A00040F2FF7110EE900A8DED000B31EA1050FF
:1017B00021D00798039900F0004001F000418842D1
:1017C00019D09DED080B8DED040B9DED020B8DEDF9
:1017D000000B10EE900A059961F31E0005909DED37
:1017E000041B9DED020B51EC110B53EC102B02F07E
:1017F000E5FBCDE902019DED020B0AB010BD012011
:10180000FEF78BFD0AB0BDE8104000F09DBC000063
:101810000000E0FF0000000010B52F499FED2C1BD9
:101820002DED020B84B0059820F000408842DCBF0B
:1018300000209DED040B32DD2849884209D104982F
:1018400040B94FF00100FEF768FD00F07DFC06B0E6
:1018500010BD05DB9DED040B00F06AFC06B010BD69
:1018600068469DED040B00F07BF810F0030011D0EA
:10187000012818D09DED021B9DED000B02281AD007
:1018800000F08AFA51EC100B01F0DCFE06B041ECDE
:10189000100B10BD9DED021B9DED000B012000F013
:1018A000AFFB06B010BD9DED021B9DED000B00F0DF
:1018B00073FA06B010BD012000F0A2FB51EC100B32
:1018C00001F0C0FE06B041EC100B10BD000000009E
:1018D0000000000000000000FB21E93F0000F07F55
:1018E00000B52DED048BB0EE409AF0EE609A83B017
:1018F00051EC190B02F06EFB41EC180B18EE100ABC
:1019000018EE901A8DED008B002818BF01200843B7
:1019100020F00040C0F17F6000F1E040C00F14D023
:1019200019EE101A19EE900A8DED009B002918BFD0
:101930000121084320F00040C0F17F6000F1E04049
:10194000C00F04BF0120FEF7E8FCB0EE480A03B068
:10195000F0EE680ABDEC048B00BD00000000000042
:101960002DE9F14F04462DED020B2DED088B8AB0C9
:101970009FEDE70B80ED020B139EE74826F0004534
:1019800085420ADC9DED120B002084ED000B0AB0AD
:10199000BDEC088B03B0BDE8F08FE0489FEDE0ABF5
:1019A0009FEDE1BBA84247DDE14F9FEDE39B9FED3B
:1019B000E48B9DED120B53EC1A2B51EC100B002E07
:1019C0001CDD02F0D3FB41EC100BBD4208D053EC00
:1019D0001B2B51EC100B02F0C9FBC4E900010BE01A
:1019E00053EC192B51EC100B02F0C0FB53EC182BED
:1019F00002F0BCFBC4E900010120C8E701F060FE71
:101A000041EC100BBD4208D053EC1B2B51EC100BDA
:101A100001F056FEC4E900010BE053EC192B51EC28
:101A2000100B01F04DFE53EC182B01F049FEC4E9F8
:101A300000014FF0FF30AAE7C348A84279DB9DEDD3
:101A4000120B51EC100B00F06BFE41EC180B9FEDEC
:101A5000C00B53EC102B02F0D5F89FEDBF1B53ECDD
:101A6000112B01F02DFE02F037F8074602F063F863
:101A700041EC190B53EC1A2B02F0C4F853EC182B61
:101A800002F09CFA41EC180B53EC1B2B51EC190B98
:101A900002F0B8F8DFF8C8A241EC100B4FEA155875
:101AA0000125FA4453EC102B51EC180B02F05EFBAD
:101AB000032DC4E900013DD0C1F30A5005EB4511E7
:101AC000A8EB00001139814234DA0AEB051BB0EEB5
:101AD00048AA9BED000BF0EE68AA53EC102B51ECDA
:101AE000190B02F08FF841EC1B0B51EC1A0B53EC65
:101AF0001B2B02F03BFB41EC180B51EC1A0B53EC87
:101B0000182B02F033FB53EC1B2B02F02FFB9BED49
:101B1000020B41EC1A0B53EC102B51EC190B02F099
:101B200071F853EC1A2B02F021FB41EC100B6D1CE9
:101B3000B8E70EE0002EA8BF3846BFF628AF94EDF8
:101B4000000B51EC100B01F07DFDC4E9000178425F
:101B50001DE7C6F3130040F4801EC6F30A50A0F23E
:101B6000F530471100F01F05C5F12000DDF848B041
:101B700008900020069007900520EC467949002D3A
:101B800007EB0002794408BF51F8221009D051F840
:101B9000223001EB8201AB404A68089922FA01F138
:101BA0001943A1FB0E26A1FB0B131A449A4234BF22
:101BB0000123002303EB06080CEB8003D3E901A605
:101BC0000E448E4234BF0121002192448A4411B157
:101BD000924502D903E0924501D2012100E00021A3
:101BE000C3E901A641444CF82010011EA0F10100F8
:101BF000C4DC029800F10050850F0298DDE903670C
:101C00008000DDF8148001F096FF41EC1A0B30469D
:101C100001F0A8FF9FED541B53EC112B01F0F2FFD4
:101C200041EC1B0B384601F09DFF9FED511B53EC1F
:101C3000112B01F0E7FF41EC180B404601F092FF39
:101C40009FED4D1B53EC112B01F0DCFF41EC190B08
:101C500051EC180B53EC192B01F032FD53EC1B2BFC
:101C600001F02EFD53EC1A2B01F02AFDCDE90801FD
:101C7000002008909DED080B53EC1A2B51EC100B33
:101C800002F074FA53EC1B2B02F070FA53EC182B91
:101C900002F06CFA53EC192B02F090F99FED381B0F
:101CA00053EC112B01F0AEFF9FED370B41EC180BFD
:101CB00053EC102B9DED080B51EC100B01F0A2FF23
:101CC00053EC182B01F0FCFC9FED310B41EC180B91
:101CD00053EC102B9DED080B51EC100B01F092FF13
:101CE00053EC182B01F0ECFC41EC100B139810F0A6
:101CF000004F06D06D4251EC100B01F0A3FC41ECFB
:101D0000100B284684ED000B41E6000000000000A7
:101D10000000000000000000FB21E93F7CD90240E8
:101D200000004054FB21F93F3163621A61B4D03D99
:101D3000FB21F93F000000000000601A61B4D03DB3
:101D40007370032E8A19A33BFB2139410000000068
:101D500083C8C96D305FE43F000000000000E03F31
:101D6000CA29000018290000000000000000103EF1
:101D7000000000000000103C000000000000103ACD
:101D8000182D4454FB21F93D3326A611460B113C76
:101D900000000054FB21F93D10B52DED040B2DED95
:101DA000088B82B0B0EE419AF0EE619A0B9820F069
:101DB00000449FED4BABB4F1795F11DA9DED0A0B56
:101DC00051EC100B01F088FE002801BFB0EE4A0A6A
:101DD000F0EE6A0A02B0BDEC088B04BF04B010BD7F
:101DE0009DED0A0B53EC102B51EC100B01F00AFF88
:101DF00041EC180B3C480621B0EE480AF0EE680AA8
:101E0000784400F081F853EC182B51EC100B01F0E2
:101E1000F9FE9DED0A0B41EC1B0B53EC192B51EC19
:101E2000100B01F0EFFE41EC190B53EC1B2B51ECA6
:101E3000180B01F0E7FE53EC192B02F097F99FED18
:101E40002C0B41EC190B53EC102B51EC180B01F03F
:101E5000D9FE41EC100B2848844210DA53EC192BC0
:101E600051EC100B02F082F953EC1A2B02F0A6F899
:101E700041EC100B02B0BDEC088B04B010BD1F4844
:101E8000A042BCBF9FED1E1B8DED001B06DBA4F521
:101E900000100190002000909DED001B51EC100BF4
:101EA00053EC112B02F062F99DED000B41EC180B85
:101EB00053EC102B51EC1A0B02F058F941EC1A0BB1
:101EC00053EC192B51EC180B02F050F953EC1A2B70
:101ED00002F074F841EC100BCCE7000000000000A9
:101EE000000000000000F03F3C2600000000000061
:101EF000000000000000E03F3333D33F0000E93F23
:101F0000000000000000D23F70B504462DED028BAA
:101F10004D1E00EBC500B0EE408AF0EE608A90EDF9
:101F2000000B35F0060017D053EC182B51EC100BBA
:101F300001F068FE41EC100B6D1E04EBC50090ED46
:101F4000001B51EC100B53EC112B01F0B9FB41ECD1
:101F5000100B35F00600E7D1022D36D0042D1CD031
:101F6000062D1CBFBDEC028B70BD53EC182B51EC41
:101F7000100B01F047FE94ED0A1B53EC112B01F0FE
:101F80009FFB53EC182B01F03DFE94ED081B53EC26
:101F9000112B01F095FB41EC100B53EC182B51EC7D
:101FA000100B01F02FFE94ED061B53EC112B01F0EA
:101FB00087FB53EC182B01F025FE94ED040B53EC3A
:101FC000102B01F07DFB41EC100B53EC182B51EC66
:101FD000100B01F017FE94ED021B53EC112B01F0D6
:101FE0006FFB53EC182B01F00DFE94ED001B53EC2E
:101FF000112B01F065FBBDEC028B41EC100B70BDA9
:1020000031B504462DED040B2DED0A8BB0EE41BA2F
:10201000F0EE61BA0B989DED0A0B20F00040B0F194
:10202000795F0DDA51EC100BFFF7F6FA042808BFC0
:1020300000F09AF89DED0A0BBDEC0A8B05B030BD9F
:1020400053EC102B51EC100B01F0DCFD41EC180BA4
:102050009DED0A0B53EC182B51EC100B01F0D2FD47
:1020600041EC190B2C48B0EE480AF0EE680A052145
:102070007844FFF749FF9FED2ACBB0EE40AAF0EE7F
:1020800060AA9CB353EC1C2B51EC190B01F0BAFD68
:1020900041EC1C0B53EC1A2B51EC190B01F0B2FD67
:1020A0009FED210B41EC190B53EC102B51EC1B0B4A
:1020B00001F0A8FD53EC192B02F058F853EC182B43
:1020C00001F0A0FD53EC1B2B02F050F853EC1C2B3D
:1020D00002F04CF89DED0A1B53EC112B01F06EFF42
:1020E000BDEC0A8B05B041EC100B30BDFFE753ECA3
:1020F0001A2B51EC180B01F085FD53EC1C2B01F051
:10210000DFFA53EC192B01F07DFD9DED0A1B53EC1A
:10211000112B01F0D5FAE3E7C42400000000000011
:10212000495555555555C5BF000000000000E03F1A
:1021300010B553EC102B51EC100B01F0C1FA41EC2F
:10214000100B10BD000000009FED050B10B553EC07
:10215000102B51EC100B01F067FB41EC100B10BD84
:1021600000000000000000009FED050B10B553ECCF
:10217000102B51EC100B01F045FD41EC100B10BD84
:102180000000000000000010F0EE400A00EE100A0F
:10219000B8EEC00A20EE800A7047000010B52DEDA1
:1021A000068BB0EE408A18EE100A02F0C9F841EC36
:1021B0001A0B9FED101BB0EE4A0AF0EE6A0AFFF709
:1021C000A7FAB0EE409AF0EE609A51EC190B01F0CC
:1021D00045FA08EE900AF5EEC08AF1EE10FA04DB3B
:1021E000B0EE680ABDEC068B10BD9FED040A38EE18
:1021F000800AF7E700000060FB211940DB0FC940AF
:1022000000BF70472848006840F001002649086078
:102210000846006840F480000860234814300068D5
:1022200040F480702049143108602048006840F074
:102230003F001E4908601E48006840F480301D4978
:10224000C1F80403881548604FF440708860084660
:10225000806820F4806088600846806840F0010053
:1022600088600846806820F0020088600846806820
:1022700020F0706088600846806840F06060886088
:102280000846806840F0805088600846C06A20F4A4
:102290007000C8620846C06A40F48000C8624FF40B
:1022A000E1504863704700003038024000000240AF
:1022B00004230140002001407CB504460D4600BFC8
:1022C000B848006840F00400B649086000BF00BF8D
:1022D0000846006840F00100086000BF00BF0846E3
:1022E000006840F00400086000BF00BF08460068B6
:1022F00040F01000086000BF00BF0846006840F0D2
:102300000400086000BF00BF0846006840F01000ED
:10231000086000BF00BF0846006840F00100086088
:1023200000BF00BF9F481430006840F002009D4984
:102330001431086000BF01200090002302224021D8
:102340000190994801F010F801200090002302222A
:1023500080210190954801F007F8012000900023AA
:10236000022280210190904800F0FEFF01200090A1
:1023700000230222810301908D4800F0F5FF012027
:1023800000900023022201020190874800F0ECFF38
:102390000120009000230222C1030190844800F034
:1023A000E3FF0120009000230222402101907F489A
:1023B00000F0DAFF022240217B4800F095FF042262
:1023C00080217A4800F090FF02228021764800F0B8
:1023D0008BFF03224FF48041754800F085FF0222F5
:1023E000D101714800F080FF03224FF40041704892
:1023F00000F07AFF042240216C4800F075FF6D4820
:102400000460001F056001205FE0022817DC6949B5
:1024100014390968421ED200121D06239340194345
:10242000644A143A116011460968421ED200D21C57
:102430000123934019435F4A143A116018E00428BD
:1024400016DC5C4910390968C21ED200121D062331
:1024500093401943574A103A116011460968C21E49
:10246000D200D21C012393401943524A103A116002
:1024700050490C390968421E930001229A401143C9
:102480004C4A0C3A116011460968421E9200521CD7
:10249000012393401943474A0C3A116011460968D9
:1024A000421E9200921C012393401943414A0C3A68
:1024B000116011460968421E9200D21C012393400C
:1024C00019433C4A0C3A1160401C04289DDB3948F2
:1024D0002C38006820F0600036492C390860084626
:1024E000006840F0200008600846006840F0800066
:1024F00008600846006840F400700860081D006825
:1025000020F07000091D08600846006840F02000B7
:1025100008602848183000682649183108600846C5
:10252000006840F48040086008460068086008467B
:10253000006840F4805008601E482038006840F071
:1025400001001C4920390860081D006820F00100C6
:10255000091D08602C200121002804DB0A07130E46
:10256000154A135406E00A07160E144A00F00F032A
:102570001B1FD65400BF2C20002809DB00F01F02CF
:10258000012191404209920002F1E022C2F80011BB
:1025900000BF08482C38006840F0010005492C397C
:1025A00008607CBD30380240000802400000024054
:1025B000000402402C04014000E400E018ED00E0BB
:1025C00010B5124B1B6823F0FF03104C2360234609
:1025D0001B680B43236023461B6843F400432360BE
:1025E000012A04D0022A06D0032A0CD107E0074BA7
:1025F000103B186008E0054B0C3B186004E0034BEF
:10260000083B186000E000BF00BF10BD440401405B
:102610004FF0E021096941F004014FF0E02211611F
:10262000054908601146096941F0010111616FF027
:1026300070415161704700000000002010B500207B
:102640003249086000BF3148006800F001000028EE
:10265000F9D12E480838006840F03D002B49083970
:1026600008602B482949083108602A48091D08607C
:1026700005202649091D0860081F0068091F086019
:102680000846006840F4807008600846006840F41E
:10269000806008600846006840F4006008600846F2
:1026A000006840F40050086008460068086008466A
:1026B000006808600846006840F010000860382094
:1026C0000121002804DB0A07130E134A135406E005
:1026D0000A07140E114A00F00F031B1FD45400BF49
:1026E0003820002809DB00F01F0201219140420937
:1026F000920002F1E022C2F8001100BF0348006816
:1027000040F001000149086010BD00001064024063
:102710004C200140CC03002000E400E018ED00E074
:1027200082B0CDE9000121F0004001909DED000B49
:1027300002B051EC100B7047072029498883DC2137
:102740002748C183B3EE040A80ED080A9FED250AED
:1027500080ED090A9FED240A80ED0A0A9FED210A07
:1027600080ED0B0A9FED210A80ED0C0A9FED200AF7
:1027700080ED0D0A9FED1F0A80ED100A9FED1E0AE5
:1027800080ED110A9FED1D0A80ED120AB2EE040AD7
:1027900080ED130A90ED0D0A80ED0F0A90ED0A0A04
:1027A00080ED0E0A9FED160A80ED140A9FED110AC6
:1027B00080ED150A9FED130A80ED160A9FED120AAF
:1027C00080ED170AB1EE040A80ED290AB7EE000A7F
:1027D00080ED190A0020024981F86000704700006E
:1027E000D80300203333A340333313403333334013
:1027F000F6285C3F0AD7233C00401C4600007A4480
:10280000CDCCCC3D000000000000C84210B52DED3D
:102810000A8B00F049FC2C48D0ED1C0A808B00EE9E
:10282000100AB8EE400A20EE800A274880ED1D0A03
:1028300090ED1E0A10EE101A084601F081FD41ECE1
:102840001A0B214890ED1D0A10EE101A084601F0EF
:1028500077FD41EC1C0B9FED1D0B53EC102B01F091
:10286000D1F941EC1B0B53EC1A2B00F029FF41EC82
:10287000190B00F0F3FE08EE100AB0EE480AFFF75D
:102880008DFC114880ED1E0A90ED1E0AB0EE401A34
:1028900000F18C018830F1EE000A9FED0E0A00F085
:1028A000ADF8094890ED231AF0EE410A90ED221A96
:1028B000B0EE410A00F19802111F903000F044F888
:1028C000BDEC0A8B10BD0000D8030020FCA9F1D29A
:1028D0004D62503F0000000000BF054A126802F040
:1028E0004002002AF9D0C2B2014B5A607047000082
:1028F0000010014070B505460C4600BF1048006846
:1029000040F002000E49086000BF0E480560001F3D
:1029100004600C482038006840F001000949203963
:10292000086008482C38006840F0010005492C393F
:10293000086002231D220321012000F085FD70BDE7
:10294000403802402C04004070B52DED0A8BB0EEEB
:10295000408AF0EE608A04460D46164684ED008AF1
:102960009FED230A28EE800A10EE101A084601F0A7
:10297000E7FC41EC1A0B18EE100A01F0E1FC41EC07
:102980001C0B9FED1C0B53EC102B01F03BF941ECA1
:102990001B0B53EC1A2B00F093FE41EC190B00F0CB
:1029A0005DFE28609FED120A28EE800A10EE101AD4
:1029B000084601F0C5FC41EC190B18EE100A01F0B5
:1029C000BFFC41EC1C0B9FED0B0B53EC102B01F0EB
:1029D00019F941EC1B0B53EC192B01F0C7FB41EC2F
:1029E0001A0B00F03BFE3060BDEC0A8B70BD00009E
:1029F000D7B35D3F000000000000E0BF70B52DEDD3
:102A00000A8BB0EE408AF0EE608AB0EE419A04463E
:102A10000D4619EE100A01F093FC41EC1C0BB0EED0
:102A20004C0AF0EE6C0AFEF70FFEB0EE40BAF0EE84
:102A300060BA51EC1B0B00F011FE09EE900A19EE82
:102A4000100A01F07DFC41EC1C0BB0EE4C0AF0EEDC
:102A50006C0AFEF7E1FEB0EE40BAF0EE60BA51EC5F
:102A60001B0B00F0FBFD0AEE100A28EE290A08EE07
:102A7000CA0A84ED000A28EE0A0A08EEA90A85EDC2
:102A8000000ABDEC0A8B70BD1CB500BF154800687C
:102A900040F020001349086000BF00BF08460068EE
:102AA00040F02000086000BF012000900023024693
:102AB000410201900C4800F057FC012000900023D7
:102AC000024681020190084800F04EFC01225102AA
:102AD000054800F03DFC01229102034800F038FC5B
:102AE0001CBD000030380240001402402DED068B62
:102AF00084B000BF0723022208214FF4A87000F021
:102B0000FBFCA820FFF784FD4FF4E131542000F0D6
:102B100013FDFFF7B9FFFEF757FCFEF7DFFCFEF7EA
:102B200079FBFFF76FFBFFF789FDA72140F2E73044
:102B3000FFF7C2FB42F2CF016320FFF7DBFEFFF796
:102B4000FBFD2EE0FEF7D8FB16480079012826D1C0
:102B5000154890ED260A10EE101A084601F0F0FB19
:102B600041EC180B104890ED250A10EE101A08469B
:102B700001F0E6FB41EC190B0B4890ED240A10EE36
:102B8000101A084601F0DCFB41EC1A0B8DED028BAC
:102B90008DED009B53EC1A2B04A0FDF775FBFEF79F
:102BA00085FBCFE764010020D8030020643A256646
:102BB0002C25662C25660A0010B52DED068B4448A1
:102BC00090ED000A4348D0ED000AB4EEE00AF1EEC1
:102BD00010FA0AD23E4890ED000A3F48D0ED000AB4
:102BE00030EE200A3A4880ED000A3A48006801F0C9
:102BF000A7FB41EC1A0B9FED390B53EC102B01F0A6
:102C000001F841EC180B3248006801F099FB41ECE7
:102C1000190B53EC182B01F09BF929D2314890ED98
:102C2000000A3148D0ED000AB4EEE00AF1EE10FAE5
:102C300018D22C4890ED000A10EE100A01F080FB2B
:102C400041EC190B9FED290B53EC102B00F038FDD4
:102C500041EC180B00F002FD00EE100A214880ED57
:102C6000000A05E0204890ED000A1E4880ED000AA9
:102C7000204890ED000A1B48D0ED000A30EE200AF3
:102C800010EE101A084601F05BFB41EC180BB0EE99
:102C9000480AF0EE680AFFF781FA00EE100AB8EE73
:102CA000C00A144880ED000A0720124991ED000A7D
:102CB000FFF76AFAB0EE408AB0EE481ADFED0E0A6E
:102CC000034890ED000A00F019F8BDEC068B10BD2A
:102CD000880000208C0000209000002000000000F0
:102CE0000000E03F9400002098000020F168E38895
:102CF000B5F8E43E100000200000000010B52DEDF6
:102D0000108B82B0F0EE408AB0EE418A814890ED9F
:102D1000000A38EE000A10EE101A084601F010FB07
:102D200041EC190BB0EE490AF0EE690AFFF736FAEA
:102D300000EE100AB8EEC00AB0EE408A18EE100A93
:102D400001F0FEFA41EC1C0BB0EE4C0AF0EE6C0AFE
:102D5000FEF762FDB0EE40AAF0EE60AAB1EE680A9E
:102D600010EE100A01F0ECFA41EC1B0B53EC1A2B9D
:102D700000F048FF41EC190B00F070FC6649086058
:102D800018EE100A01F0DCFA41EC1C0BB0EE4C0A14
:102D9000F0EE6C0AFEF758FCB0EE40AAF0EE60AA26
:102DA00018EE900A01F0CCFA41EC1B0B53EC1A2BF5
:102DB00000F028FF41EC190B00F050FC5749086067
:102DC0005748D0ED000AB0EE001A80EE810A524852
:102DD000D0ED000A30EE200A524880ED000A50483B
:102DE00090ED000AF0EE000A80EE201A11EE104A73
:102DF000204601F0A5FA41EC1A0B4748006801F0A3
:102E00009FFA41EC1D0B4548006801F099FA41EC2E
:102E10001F0B9FED450BFEF763FD8DED000B53EC93
:102E20001F2B9DED000B51EC100B00F0EBFE41EC65
:102E30001E0B53EC1D2B01F099F941EC1C0B9FED7F
:102E40003C0B53EC102B00F0EFFC41EC1B0B53EC54
:102E50001A2B00F035FC41EC190B00F0FFFB364952
:102E600008602F4890ED000AF0EE000A80EE201A6C
:102E700011EE104A204601F063FA41EC190B274885
:102E8000006801F05DFA41EC1D0B9FED270BFEF78A
:102E900027FDB0EE40EAF0EE60EA53EC1D2B51EC5A
:102EA0001E0B00F0AFFECDE900011B4890ED000ABB
:102EB000B1EE400A10EE100A01F042FA41EC1C0B90
:102EC0009DED000B53EC102B01F050F941EC1B0B66
:102ED0009FED170B53EC102B00F0A6FC41EC1A0BE6
:102EE00053EC192B00F0ECFB41EC1F0B00F0B6FB90
:102EF00012490860084690ED001A0F48D0ED000A0C
:102F0000084890ED000A00F01BF802B0BDEC108BF1
:102F100010BD0000180000201C0000202000002030
:102F20000C000020240000200000000000000840E9
:102F30000000000000000040280000202C000020BD
:102F400010B52DED048BB0EE408AF0EE608AB0EE45
:102F5000419A4F4890ED000AC8EE000AF5EEC00A0B
:102F6000F1EE10FA02D29FED4B0A13E0484890EDC3
:102F7000000AC8EE000AB7EE000AF4EEC00AF1EE4D
:102F800010FA02DDB7EE000A04E04148D0ED000A75
:102F900088EE200A404880ED000A3D4890ED000A86
:102FA000C8EE800AF5EEC00AF1EE10FA02D29FEDEB
:102FB000390A13E03648D0ED000A88EEA00AF7EE91
:102FC000000AB4EEE00AF1EE10FA02DDB7EE000AF4
:102FD00004E02F48D0ED000A88EEA00A2F4880EDCB
:102FE000000A2B4890ED000AC9EE000AF5EEC00A6F
:102FF000F1EE10FA02D29FED270A13E0244890ED7B
:10300000000AC9EE000AB7EE000AF4EEC00AF1EEBB
:1030100010FA02DDB7EE000A04E01D48D0ED000A08
:1030200089EE200A1E4880ED000A1B4991ED000A36
:10303000DFED1C0A20EE200ABDEEC00A10EE101AC9
:1030400088B201226421FFF7BBFA144991ED000A0E
:10305000DFED140A20EE200ABDEEC00A10EE101AB1
:1030600088B202226421FFF7ABFA0D4991ED000A04
:10307000DFED0C0A20EE200ABDEEC00A10EE101A99
:1030800088B203226421FFF79BFABDEC048B10BDCC
:103090000C00002000000000300000203400002060
:1030A0003800002000007A4410B52DED048B28482C
:1030B00090ED1C0AD0ED290AB4EEE00AF1EE10FA08
:1030C0003ED890ED1C0AD0ED190AB4EEE00AF1EEFC
:1030D00010FA15D290ED1C0A10EE101A084601F0F5
:1030E0002FF941EC190B9FED1B0B53EC102B00F04B
:1030F000E7FA41EC180B00F0B1FA1549086724E033
:10310000134890ED1C0AD0ED190AB4EEE00AF1EE76
:1031100010FA1ADD90ED1C0A10EE101A084601F0A4
:103120000FF941EC190B9FED0B0B53EC102B01F039
:103130001DF841EC180B00F091FA0549086704E00E
:10314000034890ED290A80ED1C0ABDEC048B10BDEC
:10315000D80300207B14AE47E17A743FF0B50446F3
:103160000D460021002000265C4F3F6847F4803761
:10317000DFF868C1CCF8007000E0491C574F3F6889
:1031800007F400371FB947F6FF77B942F5D347F682
:10319000FF77B94201D101209EE0504F40373F6890
:1031A00047F08057DFF834C10CF1400CCCF80070C8
:1031B0004B4F3F6847F44047DFF824C1CCF800701C
:1031C000464F3F1D3F6805F03F0C47EA0C07DFF80C
:1031D0000CC10CF1040CCCF8007067463F6847EA5C
:1031E0008417CCF8007067463F684FF0010CCCEBB9
:1031F000520C47EA0C47DFF8E4C00CF1040CCCF8A1
:10320000007067463F6847EA0367CCF8007067467E
:103210003F6847F48007CCF800700CF104073F6862
:103220000CF1040CCCF8007067463F6847F4A057D7
:10323000CCF8007067463F6847F40047CCF8007050
:10324000264F3F6847F08077DFF890C0CCF80070D9
:10325000002105E0491CB1F5001F01D3022005E063
:103260001E4F3F6807F00077002FF3D000BF1D4FBF
:103270003F6847F48077DFF86CC0CCF80070674691
:103280003F6847F40077CCF8007067463F6847F422
:103290008067CCF8007067463F6847F00507CCF8B8
:1032A00000700E4F08373F6847F00207DFF82CC068
:1032B0000CF1080CCCF8007000210AE0074F083729
:1032C0003F68C7F38106491CB1F5001F01D30420F4
:1032D00001E0032EF2D100BFF0BD00000038024033
:1032E00000700040003C0240F0B50346002000247E
:1032F000002500BF29E0012606FA00F401EA0405D2
:10330000A54221D1C70803F1200656F827604707D8
:103310004FEAD76C0F2707FA0CF7BE434FEAD00CE1
:1033200003F1200747F82C60C70803F1200656F880
:1033300027604707FF0E02FA07F73E434FEAD00C1B
:1033400003F1200747F82C60401C1028D3D3F0BDB0
:1033500002F001031BB183690B43836103E08369BE
:1033600043EA0143836170472DE9F0470C46DDE9EC
:103370000867002100258C4600BF60E04FF001087F
:1033800008FA01F504EA050CAC4557D1D0F80080E5
:103390004FEA410A4FF0030909FA0AF928EA090835
:1033A000C0F80080D0F800804FEA410902FA09F91C
:1033B00048EA0908C0F80080012A01D0022A27D172
:1033C000D0F808804FEA410A4FF0030909FA0AF9D8
:1033D00028EA0908C0F80880D0F808804FEA4109B7
:1033E00006FA09F948EA0908C0F80880D0F80490FC
:1033F0004FF0010808FA01F829EA0809C0F804901A
:10340000D0F8048003FA01F948EA0908C0F80480FA
:10341000D0F80C804FEA410A4FF0030909FA0AF983
:1034200028EA0908C0F80C80D0F80C804FEA41095E
:1034300007FA09F948EA0908C0F80C80491C102964
:103440009CD3BDE8F08700002DE9F041074688468F
:1034500014461D46284600F033F8C5F1040007FA6B
:1034600000F60F20284100EA0800064306F00F0688
:10347000E21704EBD2625211920002F1E022D2F87C
:1034800000212146E31704EBD3635B11A4EB431C3B
:10349000012303FA0CF31A432046E31704EBD3632A
:1034A0005B119B0003F1E023C3F800210348005D9A
:1034B00040EA061001490855BDE8F08100E400E04B
:1034C0000146072323EA01021202054B18684FF652
:1034D000FF031840034B18431043014B186070471B
:1034E0000CED00E00000FA054A0A52020243014BCB
:1034F0001A60704708ED00E0F0B504460D46164628
:103500001F4601200B49086000200A490831086065
:10351000091F086007490C3108603B4632462946BE
:103520002046FFF71BFE00214FF00060FFF7DCFF95
:10353000F0BD0000003802407CB506460C4600BFD6
:103540003148006840F001002F49086000BF00BF0B
:103550000846006840F00100086000BF00BF2A482C
:103560001430006840F0100027491431086000BF93
:103570000120009000230222410201902348FFF71E
:10358000F3FE0120009000230222810201901F48D7
:10359000FFF7EAFE07224FF400711C48FFF7A4FE74
:1035A00007224FF480611948FFF79EFE18487043C8
:1035B00000EB5400B0FBF4F5164885600020154977
:1035C000C8600846C068C8600846C068C860084649
:1035D000C06840F00800C8600846C06840F00400B9
:1035E000C8600846C06840F02000C8600223252259
:1035F00003210846FFF728FF0648C06840F4005042
:103600000449C8607CBD0000303802400000024020
:1036100040420F000010014010B500290AD0087880
:10362000002807D005487844FDF7ECF9002801D0C0
:10363000002010BD0248784410BD0000EE0F0000CD
:10364000E60F000081F00041704780F000407047B5
:1036500021F00041704720F00040704721F0004207
:10366000A2F16052B2F5801F01F0004328BFD2F1F1
:103670007F6C0BD95FEA001C43EAC20242EB507038
:1036800018BF704728BF20F001007047B2F5801FB7
:10369000BCBF184670474FEA410C1CF5001F02D210
:1036A000084600F0C3BE70B500F056FB000000896C
:1036B000FFF7F6BF4FF00040A0F580007047000014
:1036C00010B591EA030F48BF83F0004300F156851F
:1036D000841A71EB030C05D2121943EB0C03001B87
:1036E00061EB0C01DFF824E14FEA1154A4EB135C09
:1036F0001EEA430F18BF9EEA445F73D023EA0E030D
:10370000DCF1200E21EA045143F4801332D322FA73
:103710000CFE10EB0E0023FA0CFE41EB0E01CCF177
:10372000200E03FA0EFE10EB0E0051F10001B1F570
:10373000801FCCF1200E32D201EB045112FA0EF2AE
:10374000BDE8104058BF7047401C38BF5FEA4202D6
:1037500018BF7047002814BF20F0010041F100019C
:103760004FEA410313F5001F38BF7047A1F1C04174
:1037700000F0E8BB012A43EB0302ACF1200CDCF1C2
:103780001F0E32BF4FF0000E23FA0CF310EB0300B4
:1037900041EB0451B4EB115FD0D0A1EB045101F522
:1037A000801149085FEA300001EB04510ED350F15B
:1037B000000038BF12FA0EFE08D1BDE81040C9E77C
:1037C000401C38BF5FEA4202CAD1C3E7BDE81040DF
:1037D0004FEA410313F5001F38BF7047A1F1C04104
:1037E00000F0B0BB9EEA445F08D011EA5E0FBDE86E
:1037F000104004BF01F0004100207047BDE81040B8
:1038000070B500F0A9FA00BF64FBBE3E0000E0FF07
:10381000491058BFC1F140415B1058BFC3F140434C
:103820008B42EFF3008070472DE9C04130B4DFF8E0
:10383000A0C23CEA111418BF3CEA131400F0EC805B
:1038400081EA03051CEA111444EAD57418BF1CEA86
:10385000131500F0C780A4EB05044FF0004545EABE
:10386000C12145EAC32341EA505143EA525304F1CE
:103870007F74994204F500344FEAC0204FEAC22217
:1038800008BF904200F09C804FEA13650FF240168B
:10389000765D4FEA134506FB05F7C7F1807706FB17
:1038A00007F74FEAD737A7FB03687642C8F5803899
:1038B000A7FB06CE38BFA8F1010807FB08E64FF0CA
:1038C000000EA6FB028CE6FB03CEDCF1000CCEF171
:1038D000004E38BFAEF1010EA6FB0C584FF00007AA
:1038E0004FF00005E6FB0E87A1FB08C6A0FB07CE44
:1038F00016EB0E0645F10005E1FB076515F1E04EFC
:103900007EBFA4F580345FEA46066D4116F180075C
:1039100045F100054FEA17274FEA066647EA0567B3
:10392000A6F1DE46B6F1805F4FEA15251FD938466D
:1039300024F0010C05EBC471BCF1FE6F01EB0C111E
:1039400002D8F0BCBDE8008124425CBF01F5801EB6
:103950009EEAC47F02D4F0BCBDE80081244238D482
:10396000F0BCA1F1C041BDE8004100F0EBBA4FEA64
:10397000D22242EA43524FEAD323A7FB02864FEA00
:10398000D02040EA415007FB03661EEA0E0F4FEAC3
:10399000D12105FB026658BFA6EB0056B6EB0056D8
:1039A0004FEA520E4EEAC37E18EB0E0E56EB530E44
:1039B000BDD518EB02085E417F1C55F10005B6E746
:1039C0004FF480154FF000074FF000064FF000084D
:1039D000ADE7F0BC4FF0000001F1C04101F0004143
:1039E000BDE8008111EA0C1F0CEA131500D00CE0B1
:1039F00013EA0C1F00F025804FF00000F0BC81EAB4
:103A0000030101F00041BDE80081F0BCBDE80041C8
:103A100081EA030100F096BAF0BCBDE8004170B540
:103A200000F09AF9097EFC3E00F007B881EA030134
:103A30004FF0000001F00041704781EA030100F0FF
:103A400081BAF0BCBDE800414FF000002149704749
:103A5000FFFDFBF9F7F5F4F2F0EEEDEBE9E8E6E453
:103A6000E3E1E0DEDDDBDAD8D7D5D4D3D1D0CFCDDA
:103A7000CCCBCAC8C7C6C5C4C2C1C0BFBEBDBCBB13
:103A8000BAB9B8B7B6B5B4B3B2B1B0AFAEADACAB0E
:103A9000AAA9A8A8A7A6A5A4A3A3A2A1A09F9F9EE8
:103AA0009D9C9C9B9A99999897979695959493939A
:103AB000929191908F8F8E8E8D8C8C8B8B8A898931
:103AC00088888787868585848483838282818180B4
:103AD0000000FF070000F87F4FEA41034FEA53530D
:103AE000A3F58063D3F11E03C8BFD3F1210C0CDD15
:103AF0004FF0004242EAC12242EA505232FA03FC3D
:103B00008CEAE17CACEBE1707047102BC4BF002065
:103B1000704703F5787CBCF1FF3F04D06FF00042A2
:103B200082EA2100704770B500F016F949922480AE
:103B300000207047F2E710F0004248BF4042B0FA60
:103B400080F310FA03F10AD0C3F11D0303F580637B
:103B50004FEA415002EB035202EBD12170474FF084
:103B600000007047B0FA80F310FA03F10AD0C3F1F5
:103B70001D0303F580634FEA41504FEA035202EB05
:103B8000D12170474FF000007047000051EA030C4C
:103B900017D41CF5801F58BFBCF5801F00F10680AC
:103BA000994218BF704708BF9042704707D711F578
:103BB000801F58BF13F5801F19D49942704789425E
:103BC00070471CF5801F08D5BCF5801FF7D58B42C8
:103BD00018BF704708BF824270474FF4001C1CEBAF
:103BE000410F38BF1CEB430F01D28B42704770B5B9
:103BF00000F0B2F8922449004FF000514FF080538A
:103C0000FFF706BEDFF848C170B51CEA111E1EBFE3
:103C10001CEA13159EEA0C0F95EA0C0F00F06F805A
:103C200081EA030423EA4C134EEAD47E21EA4C11C4
:103C300041F4801143F48013AE44A1FB024CA0FB7D
:103C40000365AEF17F7E361955EB0C05A1FB034CE5
:103C50004CF10003A0FB021C16EB0C06654153F16E
:103C60000003094218BF46F0010613F4007F0BD190
:103C70004FEA03314FEA0530340341EA155140EA77
:103C800016506FF003020AE04FEAC3214FEAC52045
:103C9000F40241EA555140EA56506FF0020202EB3D
:103CA0002E4201EB025585EACE710AD05FEA440C40
:103CB00018BF24F0004450F1000041F1000120EA57
:103CC000D47040F2FE7C624500D270BDA84214BFA1
:103CD0004FF080444FF04044002E08BF0024BEF156
:103CE000806FA8BFA1F1C041BDE8704080F22A8179
:103CF0004FF0000001F1C04101F0004170479EEA21
:103D00000C0F0CEA131518BF95EA0C0F06D04FF0F4
:103D1000000081EA030E0EF0004170BD00F01CF8B7
:103D20008900013E00F007B800F009B84FEA430CE3
:103D30005FEA5C5C08D081EA030100F003B94FEA56
:103D4000410C5FEA5C5CF6D14FF00000014970471E
:103D50000000FF070000F87F0EF1020E2EF0030EA8
:103D60005EF8046B364205D4012A43EB030515F5D2
:103D7000001F12D8012841EB010C1CF5001F0CD8C4
:103D80000ED14FEAD17C15F5001F0CEB4C0C0CF159
:103D9000020C08BF4CEBD37C04E04FF0080C01E0B0
:103DA0004FEAD37C0CEB4C0526FA05F606F0070625
:103DB000B6F1040C06D20EEB860CBDE870404CF058
:103DC000010C6047DFE80CF0090B02024FF00041E4
:103DD0004FF00000A1F5002170BD194610460128E2
:103DE00051EB010418BFD4F5001484BF002001F08A
:103DF000004170BDDFF844C170B53CEA111418BF32
:103E00003CEA131500F08F8011F1004F1CEA1315E6
:103E10000CEA111468BF45F0050518BF11EA0C1F24
:103E200000F079802E4621EA4C1123EA4C1341F42C
:103E3000801143F48013A5F58035AC423DDD801A36
:103E40009941A4F5803609D54042C1F1000134BF43
:103E5000B1F10101B1F1000185F0010511F4F01F8C
:103E600008D011F4801FE8D1400041EB0101A4F516
:103E70008034F6E721F00041B1FA81F6202E04BF2C
:103E8000B0FA80FE0EF12006A6F10B06B6F1200E68
:103E9000A4EB06440CD2C6F1200E01FA06F120FA7A
:103EA0000EF641EA0601CEF1200600FA06F003E024
:103EB00000FA0EF14FF00000BFE750EA410E23D0A8
:103EC0004FEA244EBEEB254F0FDB994208BF9042CC
:103ED00004D00AD3520043EB0303B0E74FEA16467F
:103EE000B6EB144F08BF85F00105B4F5803401EB43
:103EF000041181EAC57100DB70BD01F1C0414FF0D2
:103F0000000001F0004170BD4FEA45714FF0000024
:103F100001F0004170BD1CEA131F09D04FF00000F2
:103F200001F0004170BDFFF717FF00BFEDFFFF3E3E
:103F3000BDE870404FF00000014970470000FF07E6
:103F40000000F87F0808A0F500114FEA3101704722
:103F500053EA010C17D41CF5801F58BFBCF5801F15
:103F600000F106808B4218BF704708BF824270473D
:103F700007D713F5801F58BF11F5801F19D48B4246
:103F800070479B4270471CF5801F08D5BCF5801F09
:103F9000F7D5994218BF704708BF904270474FF459
:103FA000001C1CEB430F38BF1CEB410F01D29942A0
:103FB00070470FB40CBC03BCFFF719BE91EA030FA6
:103FC00010B581F000413FF583AB83F0004300F072
:103FD000D5B800002DE9F04101F5801CBCF5001FAB
:103FE000C0F2A9804FEA115C21EA0C510CF1FD0CE2
:103FF00041F480115FEA5C0C0CF5C07C01D34000F9
:10400000494130A4890241EA905187028E0E0A0C80
:10401000A45D04FB04F602FB06F6C6F14046A4FBD1
:104020000662F60D46EA422606FB06F4A4FB0123CF
:104030005242C3F1404338BF5B1EA6FB024200243C
:10404000E6FB0324D20B42EA4446A6FB0623A1FB6F
:1040500002E2A3FB07E4E3FB61426442C2F1404E8B
:1040600038BFAEF1010EA6FB04234FF00002E6FBC1
:104070000E32A2FB03463400E2FB6264A1FB06E6BB
:10408000A4FB07E8E4FB61687642C8F1405838BFFA
:10409000A8F10108A2FB06E4A3FB08E5E2FB6854D3
:1040A000A1FB05E6A7FB04E8E1FB648618F1200507
:1040B00056F10006A809A8F11B08B10908F03F084D
:1040C000B8F10A0F40EA86601CD901EB0C51BDE83B
:1040D000F08100BFFCF5EEE8E2DDD8D3CFCBC7C35B
:1040E000C0BDB9B6B4B1AEACA9A7A5A3A19F9D9B15
:1040F0009A9896959392908F8D8C8B8988878685D8
:1041000084838281A0FB006800FB01F208EB420877
:10411000B8EB872807D5341858EB0104D5D5401CD7
:1041200051F10001D1E7341A78EB0104CDD4401EDF
:1041300071F10001C9E75FEA4C0C5FEA9C5C0DD1AC
:1041400005D34FF0000001F00041BDE8F081BDE86B
:10415000F04170B5FFF700FE6DDBFFBEBDE8F0413A
:104160004FF00000004970470000F87F10B591EA59
:10417000030F48BF83F000433FF5AAAA841A71EBEE
:10418000030C07D212198CF0004C43EB0C03001BFC
:1041900061EB0C01DFF8A4E14FEA1154A4EB135CCE
:1041A0001EEA430F18BF9EEA445F00F0B08023EA86
:1041B0006E03524221EA0451C3EB6E0338BF5B1E0B
:1041C000DCF1200E25D322FA0CFE10EB0E0043FA90
:1041D0000CFE41EB0E01CCF1200E03FA0EFE10EBAB
:1041E0000E0051F10001CCF1200E29D412FA0EF28A
:1041F00001EB0451BDE8104058BF7047401C1CBF84
:10420000B2F1004F704700280CBF491C20F001009C
:10421000704712EB020E43EB030218BF4FF0010E82
:104220004EEA4202ACF1200CDCF11E0E54D943FAE6
:104230000CFE10EB0E0051F1FF31CCF11E0ED5D566
:104240000EF1010E12FA0EFE404141EB010101EBAD
:10425000445C5FEA5C5C10D910EBDE7001EB04514A
:1042600038BFBEF1004FBDE8104018BF70470028AE
:104270000CBF491C20F00100704730D24FEAD42C0B
:1042800011F5001124F400641BD0B1FA81F20B3A4D
:10429000A41AA41ED2F12003914030FA03F319436B
:1042A000904001EBCC71002C01EB0451BDE81040B3
:1042B000A8BF704701F1C0414FF0000001F000417C
:1042C0007047B0FA80F310FA03F100D110BDE41A80
:1042D000173C4805C90AE4E701EB045110BD491039
:1042E00001EB0451BDE810404FEA300002E04FF00E
:1042F000000170474A0008BF0042F8D0B2F5001F25
:1043000028BF704701F000414FF0000070479EEA5F
:10431000445F07D011EA5E0FBDE8104004BF0021E2
:1043200000207047BDE8104070B5FFF715FD00BFD5
:1043300040DFF63E83F00041104670470000E0FF8A
:1043400043004FEAD30C4FEA3C0C43401FBF4007E9
:104350000CF1605113F0FE4F70471CF0006F03D159
:1043600000200CF0004170470CF0004343EA50700D
:1043700010B540EACC0000F00EF800BF000000923B
:104380004FEA0001FFF7DEBD4FF000414FF00000A3
:10439000A1F5002170470EF1020E2EF0030E5EF81B
:1043A000044B244204D44FEA4102B2F17F4F11D8AA
:1043B0004FEA4003B3F17F4F0CD80ED14FEAD07CC7
:1043C000B2F17F4F0CEB4C0C0CF1020C08BF4CEB24
:1043D000D17C04E04FF0080C01E04FEAD17C0CEBFB
:1043E0004C0324FA03F404F00704B4F1040C06D2DD
:1043F0000EEB840CBDE810404CF0010C6047DFE888
:104400000CF0070802024FF00040A0F5800010BD3C
:104410000846420018BFD2F1807288BF00F0004009
:1044200010BD4FF04070E1EE100A7047FF2141EAE5
:10443000D050C0057047FCF74FB8000000000000E6
:104440004C5555555555A53F7751C1166CC156BFB2
:104450009015CB19A001FA3EAD529C804F7E92BEC2
:10446000C4B1B4BD9EEE213ED43888BEE9FAA8BDE1
:1044700000004054FB21F93F3163621A61B4D03D22
:104480000000601A61B4D03D7370032E8A19A33BFB
:104490000000002E8A19A33BC14920259A837B394D
:1044A00000000000000000006E83F9A22915444EB0
:1044B000D15727FCC0DD34F5999562DB4190433C30
:1044C000AB6351FE61C5BBDE3A6E24B7E0D24D420C
:1044D000EA2E49061C92D1091CEB1DFE3EA729B10C
:1044E000F53582E88444BB2E26709CE9417E5FB49A
:1044F00039D69139F43953838B5F849C3B28F9BDBD
:10450000FF97F81F0F9805DE8B112FEF1F6D0A5ACA
:10451000CF7E366DB709CB27663F464F2DEA5F9EAB
:10452000C7BA27757BF1E5EBF739073DEA92528A66
:10453000B15FFB6B085D8D1FA6F810111111813F53
:10454000D561C119A0012ABF7DFEB157E31DC73E49
:10455000EB9C2B8AE6E55ABE7CD5CF5A3AD9E53D8D
:1045600002400000000000A0000000000540000024
:10457000000000C8000000000C4000000000409C4B
:1045800000000000194000000020BCBE0000000038
:1045900034400000BFC91B8E00000004B54000007D
:1045A000504BCFD06607E2CF010000006C41000005
:1045B0003E8251AADFEEA73401000000D94200007C
:1045C000DCB5A0E23A301F97FFFFFFFFB4450000C3
:1045D000FD25A0C8E9A3C14FFFFFFFFFFF3F00007B
:1045E0000000008000000000FF3F0000000000808D
:1045F0000000000030460008000000209C00000081
:10460000C4010008CC4600089C00002044080000BB
:10461000E00100081C00000043000000F8FFFFFF5D
:104620000C0000000E0000000F0000002E00000033
:1046300000000000000000000000000000004041F9
:10464000000000000000000000000000000000006A
:10465000000000000000000000000000000000005A
:10466000000000000000000000000000000000004A
:10467000000000000000000000000000000000003A
:104680000000000000000000000000000C0100001D
:10469000F402000000000000000000000000000024
:1046A000000000000000000000000000000000000A
:1046B000000000000000000000000000000080403A
:0C46C0006F12833A6F12033A17B7513A99
:040000050800018965
:00000001FF
